{
  "abi": [
    {
      "inputs": [
        {
          "internalType": "uint256",
          "name": "minimum",
          "type": "uint256"
        },
        {
          "internalType": "address",
          "name": "creator",
          "type": "address"
        }
      ],
      "stateMutability": "payable",
      "type": "constructor"
    },
    {
      "inputs": [
        {
          "internalType": "uint256",
          "name": "index",
          "type": "uint256"
        }
      ],
      "name": "approveRequest",
      "outputs": [],
      "stateMutability": "payable",
      "type": "function"
    },
    {
      "inputs": [
        {
          "internalType": "address",
          "name": "",
          "type": "address"
        }
      ],
      "name": "approvers",
      "outputs": [
        {
          "internalType": "bool",
          "name": "",
          "type": "bool"
        }
      ],
      "stateMutability": "view",
      "type": "function"
    },
    {
      "inputs": [],
      "name": "approversCount",
      "outputs": [
        {
          "internalType": "uint256",
          "name": "",
          "type": "uint256"
        }
      ],
      "stateMutability": "view",
      "type": "function"
    },
    {
      "inputs": [],
      "name": "contribute",
      "outputs": [],
      "stateMutability": "payable",
      "type": "function"
    },
    {
      "inputs": [
        {
          "internalType": "string",
          "name": "description",
          "type": "string"
        },
        {
          "internalType": "uint256",
          "name": "value",
          "type": "uint256"
        },
        {
          "internalType": "address payable",
          "name": "recipient",
          "type": "address"
        }
      ],
      "name": "createRequest",
      "outputs": [],
      "stateMutability": "payable",
      "type": "function"
    },
    {
      "inputs": [
        {
          "internalType": "uint256",
          "name": "index",
          "type": "uint256"
        }
      ],
      "name": "finalizeRequest",
      "outputs": [],
      "stateMutability": "nonpayable",
      "type": "function"
    },
    {
      "inputs": [],
      "name": "getRequestsCount",
      "outputs": [
        {
          "internalType": "uint256",
          "name": "",
          "type": "uint256"
        }
      ],
      "stateMutability": "view",
      "type": "function"
    },
    {
      "inputs": [],
      "name": "getSummary",
      "outputs": [
        {
          "internalType": "uint256",
          "name": "",
          "type": "uint256"
        },
        {
          "internalType": "uint256",
          "name": "",
          "type": "uint256"
        },
        {
          "internalType": "uint256",
          "name": "",
          "type": "uint256"
        },
        {
          "internalType": "uint256",
          "name": "",
          "type": "uint256"
        },
        {
          "internalType": "address",
          "name": "",
          "type": "address"
        }
      ],
      "stateMutability": "view",
      "type": "function"
    },
    {
      "inputs": [],
      "name": "manager",
      "outputs": [
        {
          "internalType": "address",
          "name": "",
          "type": "address"
        }
      ],
      "stateMutability": "view",
      "type": "function"
    },
    {
      "inputs": [],
      "name": "minimumContribution",
      "outputs": [
        {
          "internalType": "uint256",
          "name": "",
          "type": "uint256"
        }
      ],
      "stateMutability": "view",
      "type": "function"
    },
    {
      "inputs": [],
      "name": "numRequests",
      "outputs": [
        {
          "internalType": "uint256",
          "name": "",
          "type": "uint256"
        }
      ],
      "stateMutability": "view",
      "type": "function"
    },
    {
      "inputs": [
        {
          "internalType": "uint256",
          "name": "",
          "type": "uint256"
        }
      ],
      "name": "requestsMap",
      "outputs": [
        {
          "internalType": "string",
          "name": "description",
          "type": "string"
        },
        {
          "internalType": "uint256",
          "name": "value",
          "type": "uint256"
        },
        {
          "internalType": "address payable",
          "name": "recipient",
          "type": "address"
        },
        {
          "internalType": "bool",
          "name": "complete",
          "type": "bool"
        },
        {
          "internalType": "uint256",
          "name": "approvalCount",
          "type": "uint256"
        }
      ],
      "stateMutability": "view",
      "type": "function"
    }
  ],
  "devdoc": {
    "kind": "dev",
    "methods": {},
    "version": 1
  },
  "evm": {
    "assembly": "    /* \"Campaign.sol\":423:2779  contract Campaign {... */\n  mstore(0x40, 0x80)\n    /* \"Campaign.sol\":682:683  0 */\n  0x00\n    /* \"Campaign.sol\":653:683  uint256 public numRequests = 0 */\n  dup1\n  sstore\n    /* \"Campaign.sol\":1008:1131  constructor(uint minimum, address creator) payable{... */\n  mload(0x40)\n  sub(codesize, bytecodeSize)\n  dup1\n  bytecodeSize\n  dup4\n  codecopy\n  dup2\n  dup2\n  add\n  0x40\n  mstore\n  dup2\n  add\n  swap1\n  tag_1\n  swap2\n  swap1\n  tag_2\n  jump\t// in\ntag_1:\n    /* \"Campaign.sol\":1078:1085  creator */\n  dup1\n    /* \"Campaign.sol\":1068:1075  manager */\n  0x02\n  0x00\n    /* \"Campaign.sol\":1068:1085  manager = creator */\n  0x0100\n  exp\n  dup2\n  sload\n  dup2\n  0xffffffffffffffffffffffffffffffffffffffff\n  mul\n  not\n  and\n  swap1\n  dup4\n  0xffffffffffffffffffffffffffffffffffffffff\n  and\n  mul\n  or\n  swap1\n  sstore\n  pop\n    /* \"Campaign.sol\":1117:1124  minimum */\n  dup2\n    /* \"Campaign.sol\":1095:1114  minimumContribution */\n  0x03\n    /* \"Campaign.sol\":1095:1124  minimumContribution = minimum */\n  dup2\n  swap1\n  sstore\n  pop\n    /* \"Campaign.sol\":1008:1131  constructor(uint minimum, address creator) payable{... */\n  pop\n  pop\n    /* \"Campaign.sol\":423:2779  contract Campaign {... */\n  jump(tag_5)\n    /* \"#utility.yul\":88:205   */\ntag_7:\n    /* \"#utility.yul\":197:198   */\n  0x00\n    /* \"#utility.yul\":194:195   */\n  dup1\n    /* \"#utility.yul\":187:199   */\n  revert\n    /* \"#utility.yul\":334:411   */\ntag_9:\n    /* \"#utility.yul\":371:378   */\n  0x00\n    /* \"#utility.yul\":400:405   */\n  dup2\n    /* \"#utility.yul\":389:405   */\n  swap1\n  pop\n    /* \"#utility.yul\":334:411   */\n  swap2\n  swap1\n  pop\n  jump\t// out\n    /* \"#utility.yul\":417:539   */\ntag_10:\n    /* \"#utility.yul\":490:514   */\n  tag_22\n    /* \"#utility.yul\":508:513   */\n  dup2\n    /* \"#utility.yul\":490:514   */\n  tag_9\n  jump\t// in\ntag_22:\n    /* \"#utility.yul\":483:488   */\n  dup2\n    /* \"#utility.yul\":480:515   */\n  eq\n    /* \"#utility.yul\":470:533   */\n  tag_23\n  jumpi\n    /* \"#utility.yul\":529:530   */\n  0x00\n    /* \"#utility.yul\":526:527   */\n  dup1\n    /* \"#utility.yul\":519:531   */\n  revert\n    /* \"#utility.yul\":470:533   */\ntag_23:\n    /* \"#utility.yul\":417:539   */\n  pop\n  jump\t// out\n    /* \"#utility.yul\":545:688   */\ntag_11:\n    /* \"#utility.yul\":602:607   */\n  0x00\n    /* \"#utility.yul\":633:639   */\n  dup2\n    /* \"#utility.yul\":627:640   */\n  mload\n    /* \"#utility.yul\":618:640   */\n  swap1\n  pop\n    /* \"#utility.yul\":649:682   */\n  tag_25\n    /* \"#utility.yul\":676:681   */\n  dup2\n    /* \"#utility.yul\":649:682   */\n  tag_10\n  jump\t// in\ntag_25:\n    /* \"#utility.yul\":545:688   */\n  swap3\n  swap2\n  pop\n  pop\n  jump\t// out\n    /* \"#utility.yul\":694:820   */\ntag_12:\n    /* \"#utility.yul\":731:738   */\n  0x00\n    /* \"#utility.yul\":771:813   */\n  0xffffffffffffffffffffffffffffffffffffffff\n    /* \"#utility.yul\":764:769   */\n  dup3\n    /* \"#utility.yul\":760:814   */\n  and\n    /* \"#utility.yul\":749:814   */\n  swap1\n  pop\n    /* \"#utility.yul\":694:820   */\n  swap2\n  swap1\n  pop\n  jump\t// out\n    /* \"#utility.yul\":826:922   */\ntag_13:\n    /* \"#utility.yul\":863:870   */\n  0x00\n    /* \"#utility.yul\":892:916   */\n  tag_28\n    /* \"#utility.yul\":910:915   */\n  dup3\n    /* \"#utility.yul\":892:916   */\n  tag_12\n  jump\t// in\ntag_28:\n    /* \"#utility.yul\":881:916   */\n  swap1\n  pop\n    /* \"#utility.yul\":826:922   */\n  swap2\n  swap1\n  pop\n  jump\t// out\n    /* \"#utility.yul\":928:1050   */\ntag_14:\n    /* \"#utility.yul\":1001:1025   */\n  tag_30\n    /* \"#utility.yul\":1019:1024   */\n  dup2\n    /* \"#utility.yul\":1001:1025   */\n  tag_13\n  jump\t// in\ntag_30:\n    /* \"#utility.yul\":994:999   */\n  dup2\n    /* \"#utility.yul\":991:1026   */\n  eq\n    /* \"#utility.yul\":981:1044   */\n  tag_31\n  jumpi\n    /* \"#utility.yul\":1040:1041   */\n  0x00\n    /* \"#utility.yul\":1037:1038   */\n  dup1\n    /* \"#utility.yul\":1030:1042   */\n  revert\n    /* \"#utility.yul\":981:1044   */\ntag_31:\n    /* \"#utility.yul\":928:1050   */\n  pop\n  jump\t// out\n    /* \"#utility.yul\":1056:1199   */\ntag_15:\n    /* \"#utility.yul\":1113:1118   */\n  0x00\n    /* \"#utility.yul\":1144:1150   */\n  dup2\n    /* \"#utility.yul\":1138:1151   */\n  mload\n    /* \"#utility.yul\":1129:1151   */\n  swap1\n  pop\n    /* \"#utility.yul\":1160:1193   */\n  tag_33\n    /* \"#utility.yul\":1187:1192   */\n  dup2\n    /* \"#utility.yul\":1160:1193   */\n  tag_14\n  jump\t// in\ntag_33:\n    /* \"#utility.yul\":1056:1199   */\n  swap3\n  swap2\n  pop\n  pop\n  jump\t// out\n    /* \"#utility.yul\":1205:1712   */\ntag_2:\n    /* \"#utility.yul\":1284:1290   */\n  0x00\n    /* \"#utility.yul\":1292:1298   */\n  dup1\n    /* \"#utility.yul\":1341:1343   */\n  0x40\n    /* \"#utility.yul\":1329:1338   */\n  dup4\n    /* \"#utility.yul\":1320:1327   */\n  dup6\n    /* \"#utility.yul\":1316:1339   */\n  sub\n    /* \"#utility.yul\":1312:1344   */\n  slt\n    /* \"#utility.yul\":1309:1428   */\n  iszero\n  tag_35\n  jumpi\n    /* \"#utility.yul\":1347:1426   */\n  tag_36\n  tag_7\n  jump\t// in\ntag_36:\n    /* \"#utility.yul\":1309:1428   */\ntag_35:\n    /* \"#utility.yul\":1467:1468   */\n  0x00\n    /* \"#utility.yul\":1492:1556   */\n  tag_37\n    /* \"#utility.yul\":1548:1555   */\n  dup6\n    /* \"#utility.yul\":1539:1545   */\n  dup3\n    /* \"#utility.yul\":1528:1537   */\n  dup7\n    /* \"#utility.yul\":1524:1546   */\n  add\n    /* \"#utility.yul\":1492:1556   */\n  tag_11\n  jump\t// in\ntag_37:\n    /* \"#utility.yul\":1482:1556   */\n  swap3\n  pop\n    /* \"#utility.yul\":1438:1566   */\n  pop\n    /* \"#utility.yul\":1605:1607   */\n  0x20\n    /* \"#utility.yul\":1631:1695   */\n  tag_38\n    /* \"#utility.yul\":1687:1694   */\n  dup6\n    /* \"#utility.yul\":1678:1684   */\n  dup3\n    /* \"#utility.yul\":1667:1676   */\n  dup7\n    /* \"#utility.yul\":1663:1685   */\n  add\n    /* \"#utility.yul\":1631:1695   */\n  tag_15\n  jump\t// in\ntag_38:\n    /* \"#utility.yul\":1621:1695   */\n  swap2\n  pop\n    /* \"#utility.yul\":1576:1705   */\n  pop\n    /* \"#utility.yul\":1205:1712   */\n  swap3\n  pop\n  swap3\n  swap1\n  pop\n  jump\t// out\n    /* \"Campaign.sol\":423:2779  contract Campaign {... */\ntag_5:\n  dataSize(sub_0)\n  dup1\n  dataOffset(sub_0)\n  0x00\n  codecopy\n  0x00\n  return\nstop\n\nsub_0: assembly {\n        /* \"Campaign.sol\":423:2779  contract Campaign {... */\n      mstore(0x40, 0x80)\n      jumpi(tag_1, lt(calldatasize, 0x04))\n      shr(0xe0, calldataload(0x00))\n      dup1\n      0x8a9cfd55\n      gt\n      tag_14\n      jumpi\n      dup1\n      0x8a9cfd55\n      eq\n      tag_8\n      jumpi\n      dup1\n      0x937e09b1\n      eq\n      tag_9\n      jumpi\n      dup1\n      0x9fb42b1f\n      eq\n      tag_10\n      jumpi\n      dup1\n      0xc6612dc7\n      eq\n      tag_11\n      jumpi\n      dup1\n      0xd7bb99ba\n      eq\n      tag_12\n      jumpi\n      dup1\n      0xd7d1bbdb\n      eq\n      tag_13\n      jumpi\n      jump(tag_1)\n    tag_14:\n      dup1\n      0x03441006\n      eq\n      tag_2\n      jumpi\n      dup1\n      0x0a144391\n      eq\n      tag_3\n      jumpi\n      dup1\n      0x3410452a\n      eq\n      tag_4\n      jumpi\n      dup1\n      0x4051ddac\n      eq\n      tag_5\n      jumpi\n      dup1\n      0x481c6a75\n      eq\n      tag_6\n      jumpi\n      dup1\n      0x82fde093\n      eq\n      tag_7\n      jumpi\n    tag_1:\n      0x00\n      dup1\n      revert\n        /* \"Campaign.sol\":2108:2409  function finalizeRequest(uint index) public restricted {... */\n    tag_2:\n      callvalue\n      dup1\n      iszero\n      tag_15\n      jumpi\n      0x00\n      dup1\n      revert\n    tag_15:\n      pop\n      tag_16\n      0x04\n      dup1\n      calldatasize\n      sub\n      dup2\n      add\n      swap1\n      tag_17\n      swap2\n      swap1\n      tag_18\n      jump\t// in\n    tag_17:\n      tag_19\n      jump\t// in\n    tag_16:\n      stop\n        /* \"Campaign.sol\":842:883  mapping(address => bool) public approvers */\n    tag_3:\n      callvalue\n      dup1\n      iszero\n      tag_20\n      jumpi\n      0x00\n      dup1\n      revert\n    tag_20:\n      pop\n      tag_21\n      0x04\n      dup1\n      calldatasize\n      sub\n      dup2\n      add\n      swap1\n      tag_22\n      swap2\n      swap1\n      tag_23\n      jump\t// in\n    tag_22:\n      tag_24\n      jump\t// in\n    tag_21:\n      mload(0x40)\n      tag_25\n      swap2\n      swap1\n      tag_26\n      jump\t// in\n    tag_25:\n      mload(0x40)\n      dup1\n      swap2\n      sub\n      swap1\n      return\n        /* \"Campaign.sol\":2687:2777  function getRequestsCount() public view returns (uint) {... */\n    tag_4:\n      callvalue\n      dup1\n      iszero\n      tag_27\n      jumpi\n      0x00\n      dup1\n      revert\n    tag_27:\n      pop\n      tag_28\n      tag_29\n      jump\t// in\n    tag_28:\n      mload(0x40)\n      tag_30\n      swap2\n      swap1\n      tag_31\n      jump\t// in\n    tag_30:\n      mload(0x40)\n      dup1\n      swap2\n      sub\n      swap1\n      return\n        /* \"Campaign.sol\":2415:2681  function getSummary() public view returns (... */\n    tag_5:\n      callvalue\n      dup1\n      iszero\n      tag_32\n      jumpi\n      0x00\n      dup1\n      revert\n    tag_32:\n      pop\n      tag_33\n      tag_34\n      jump\t// in\n    tag_33:\n      mload(0x40)\n      tag_35\n      swap6\n      swap5\n      swap4\n      swap3\n      swap2\n      swap1\n      tag_36\n      jump\t// in\n    tag_35:\n      mload(0x40)\n      dup1\n      swap2\n      sub\n      swap1\n      return\n        /* \"Campaign.sol\":777:799  address public manager */\n    tag_6:\n      callvalue\n      dup1\n      iszero\n      tag_37\n      jumpi\n      0x00\n      dup1\n      revert\n    tag_37:\n      pop\n      tag_38\n      tag_39\n      jump\t// in\n    tag_38:\n      mload(0x40)\n      tag_40\n      swap2\n      swap1\n      tag_41\n      jump\t// in\n    tag_40:\n      mload(0x40)\n      dup1\n      swap2\n      sub\n      swap1\n      return\n        /* \"Campaign.sol\":889:915  uint public approversCount */\n    tag_7:\n      callvalue\n      dup1\n      iszero\n      tag_42\n      jumpi\n      0x00\n      dup1\n      revert\n    tag_42:\n      pop\n      tag_43\n      tag_44\n      jump\t// in\n    tag_43:\n      mload(0x40)\n      tag_45\n      swap2\n      swap1\n      tag_31\n      jump\t// in\n    tag_45:\n      mload(0x40)\n      dup1\n      swap2\n      sub\n      swap1\n      return\n        /* \"Campaign.sol\":1444:1814  function createRequest(string memory description, uint value, address payable recipient) public payable restricted {... */\n    tag_8:\n      tag_46\n      0x04\n      dup1\n      calldatasize\n      sub\n      dup2\n      add\n      swap1\n      tag_47\n      swap2\n      swap1\n      tag_48\n      jump\t// in\n    tag_47:\n      tag_49\n      jump\t// in\n    tag_46:\n      stop\n        /* \"Campaign.sol\":805:836  uint public minimumContribution */\n    tag_9:\n      callvalue\n      dup1\n      iszero\n      tag_50\n      jumpi\n      0x00\n      dup1\n      revert\n    tag_50:\n      pop\n      tag_51\n      tag_52\n      jump\t// in\n    tag_51:\n      mload(0x40)\n      tag_53\n      swap2\n      swap1\n      tag_31\n      jump\t// in\n    tag_53:\n      mload(0x40)\n      dup1\n      swap2\n      sub\n      swap1\n      return\n        /* \"Campaign.sol\":653:683  uint256 public numRequests = 0 */\n    tag_10:\n      callvalue\n      dup1\n      iszero\n      tag_54\n      jumpi\n      0x00\n      dup1\n      revert\n    tag_54:\n      pop\n      tag_55\n      tag_56\n      jump\t// in\n    tag_55:\n      mload(0x40)\n      tag_57\n      swap2\n      swap1\n      tag_31\n      jump\t// in\n    tag_57:\n      mload(0x40)\n      dup1\n      swap2\n      sub\n      swap1\n      return\n        /* \"Campaign.sol\":689:736  mapping (uint256 => Request) public requestsMap */\n    tag_11:\n      callvalue\n      dup1\n      iszero\n      tag_58\n      jumpi\n      0x00\n      dup1\n      revert\n    tag_58:\n      pop\n      tag_59\n      0x04\n      dup1\n      calldatasize\n      sub\n      dup2\n      add\n      swap1\n      tag_60\n      swap2\n      swap1\n      tag_18\n      jump\t// in\n    tag_60:\n      tag_61\n      jump\t// in\n    tag_59:\n      mload(0x40)\n      tag_62\n      swap6\n      swap5\n      swap4\n      swap3\n      swap2\n      swap1\n      tag_63\n      jump\t// in\n    tag_62:\n      mload(0x40)\n      dup1\n      swap2\n      sub\n      swap1\n      return\n        /* \"Campaign.sol\":1137:1438  function contribute() public payable {... */\n    tag_12:\n      tag_64\n      tag_65\n      jump\t// in\n    tag_64:\n      stop\n        /* \"Campaign.sol\":1820:2102  function approveRequest(uint index) public payable {... */\n    tag_13:\n      tag_66\n      0x04\n      dup1\n      calldatasize\n      sub\n      dup2\n      add\n      swap1\n      tag_67\n      swap2\n      swap1\n      tag_18\n      jump\t// in\n    tag_67:\n      tag_68\n      jump\t// in\n    tag_66:\n      stop\n        /* \"Campaign.sol\":2108:2409  function finalizeRequest(uint index) public restricted {... */\n    tag_19:\n        /* \"Campaign.sol\":976:983  manager */\n      0x02\n      0x00\n      swap1\n      sload\n      swap1\n      0x0100\n      exp\n      swap1\n      div\n      0xffffffffffffffffffffffffffffffffffffffff\n      and\n        /* \"Campaign.sol\":962:983  msg.sender == manager */\n      0xffffffffffffffffffffffffffffffffffffffff\n      and\n        /* \"Campaign.sol\":962:972  msg.sender */\n      caller\n        /* \"Campaign.sol\":962:983  msg.sender == manager */\n      0xffffffffffffffffffffffffffffffffffffffff\n      and\n      eq\n        /* \"Campaign.sol\":954:984  require(msg.sender == manager) */\n      tag_70\n      jumpi\n      0x00\n      dup1\n      revert\n    tag_70:\n        /* \"Campaign.sol\":2173:2196  Request storage request */\n      0x00\n        /* \"Campaign.sol\":2199:2210  requestsMap */\n      0x01\n        /* \"Campaign.sol\":2199:2217  requestsMap[index] */\n      0x00\n        /* \"Campaign.sol\":2211:2216  index */\n      dup4\n        /* \"Campaign.sol\":2199:2217  requestsMap[index] */\n      dup2\n      mstore\n      0x20\n      add\n      swap1\n      dup2\n      mstore\n      0x20\n      add\n      0x00\n      keccak256\n        /* \"Campaign.sol\":2173:2217  Request storage request = requestsMap[index] */\n      swap1\n      pop\n        /* \"Campaign.sol\":2278:2279  2 */\n      0x02\n        /* \"Campaign.sol\":2261:2275  approversCount */\n      sload(0x05)\n        /* \"Campaign.sol\":2261:2279  approversCount / 2 */\n      tag_72\n      swap2\n      swap1\n      tag_73\n      jump\t// in\n    tag_72:\n        /* \"Campaign.sol\":2236:2243  request */\n      dup2\n        /* \"Campaign.sol\":2236:2257  request.approvalCount */\n      0x03\n      add\n      sload\n        /* \"Campaign.sol\":2236:2280  request.approvalCount > (approversCount / 2) */\n      gt\n        /* \"Campaign.sol\":2228:2281  require(request.approvalCount > (approversCount / 2)) */\n      tag_74\n      jumpi\n      0x00\n      dup1\n      revert\n    tag_74:\n        /* \"Campaign.sol\":2300:2307  request */\n      dup1\n        /* \"Campaign.sol\":2300:2316  request.complete */\n      0x02\n      add\n      0x14\n      swap1\n      sload\n      swap1\n      0x0100\n      exp\n      swap1\n      div\n      0xff\n      and\n        /* \"Campaign.sol\":2299:2316  !request.complete */\n      iszero\n        /* \"Campaign.sol\":2291:2317  require(!request.complete) */\n      tag_75\n      jumpi\n      0x00\n      dup1\n      revert\n    tag_75:\n        /* \"Campaign.sol\":2328:2335  request */\n      dup1\n        /* \"Campaign.sol\":2328:2345  request.recipient */\n      0x02\n      add\n      0x00\n      swap1\n      sload\n      swap1\n      0x0100\n      exp\n      swap1\n      div\n      0xffffffffffffffffffffffffffffffffffffffff\n      and\n        /* \"Campaign.sol\":2328:2354  request.recipient.transfer */\n      0xffffffffffffffffffffffffffffffffffffffff\n      and\n        /* \"Campaign.sol\":2328:2369  request.recipient.transfer(request.value) */\n      0x08fc\n        /* \"Campaign.sol\":2355:2362  request */\n      dup3\n        /* \"Campaign.sol\":2355:2368  request.value */\n      0x01\n      add\n      sload\n        /* \"Campaign.sol\":2328:2369  request.recipient.transfer(request.value) */\n      swap1\n      dup2\n      iszero\n      mul\n      swap1\n      mload(0x40)\n      0x00\n      mload(0x40)\n      dup1\n      dup4\n      sub\n      dup2\n      dup6\n      dup9\n      dup9\n      call\n      swap4\n      pop\n      pop\n      pop\n      pop\n      iszero\n      dup1\n      iszero\n      tag_77\n      jumpi\n      returndatasize\n      0x00\n      dup1\n      returndatacopy\n      revert(0x00, returndatasize)\n    tag_77:\n      pop\n        /* \"Campaign.sol\":2398:2402  true */\n      0x01\n        /* \"Campaign.sol\":2379:2386  request */\n      dup2\n        /* \"Campaign.sol\":2379:2395  request.complete */\n      0x02\n      add\n      0x14\n        /* \"Campaign.sol\":2379:2402  request.complete = true */\n      0x0100\n      exp\n      dup2\n      sload\n      dup2\n      0xff\n      mul\n      not\n      and\n      swap1\n      dup4\n      iszero\n      iszero\n      mul\n      or\n      swap1\n      sstore\n      pop\n        /* \"Campaign.sol\":2163:2409  {... */\n      pop\n        /* \"Campaign.sol\":2108:2409  function finalizeRequest(uint index) public restricted {... */\n      pop\n      jump\t// out\n        /* \"Campaign.sol\":842:883  mapping(address => bool) public approvers */\n    tag_24:\n      mstore(0x20, 0x04)\n      dup1\n      0x00\n      mstore\n      keccak256(0x00, 0x40)\n      0x00\n      swap2\n      pop\n      sload\n      swap1\n      0x0100\n      exp\n      swap1\n      div\n      0xff\n      and\n      dup2\n      jump\t// out\n        /* \"Campaign.sol\":2687:2777  function getRequestsCount() public view returns (uint) {... */\n    tag_29:\n        /* \"Campaign.sol\":2736:2740  uint */\n      0x00\n        /* \"Campaign.sol\":2759:2770  numRequests */\n      dup1\n      sload\n        /* \"Campaign.sol\":2752:2770  return numRequests */\n      swap1\n      pop\n        /* \"Campaign.sol\":2687:2777  function getRequestsCount() public view returns (uint) {... */\n      swap1\n      jump\t// out\n        /* \"Campaign.sol\":2415:2681  function getSummary() public view returns (... */\n    tag_34:\n        /* \"Campaign.sol\":2467:2471  uint */\n      0x00\n        /* \"Campaign.sol\":2473:2477  uint */\n      dup1\n        /* \"Campaign.sol\":2479:2483  uint */\n      0x00\n        /* \"Campaign.sol\":2485:2489  uint */\n      dup1\n        /* \"Campaign.sol\":2491:2498  address */\n      0x00\n        /* \"Campaign.sol\":2536:2555  minimumContribution */\n      sload(0x03)\n        /* \"Campaign.sol\":2569:2590  address(this).balance */\n      selfbalance\n        /* \"Campaign.sol\":2604:2615  numRequests */\n      sload(0x00)\n        /* \"Campaign.sol\":2629:2643  approversCount */\n      sload(0x05)\n        /* \"Campaign.sol\":2657:2664  manager */\n      0x02\n      0x00\n      swap1\n      sload\n      swap1\n      0x0100\n      exp\n      swap1\n      div\n      0xffffffffffffffffffffffffffffffffffffffff\n      and\n        /* \"Campaign.sol\":2515:2674  return (... */\n      swap5\n      pop\n      swap5\n      pop\n      swap5\n      pop\n      swap5\n      pop\n      swap5\n      pop\n        /* \"Campaign.sol\":2415:2681  function getSummary() public view returns (... */\n      swap1\n      swap2\n      swap3\n      swap4\n      swap5\n      jump\t// out\n        /* \"Campaign.sol\":777:799  address public manager */\n    tag_39:\n      0x02\n      0x00\n      swap1\n      sload\n      swap1\n      0x0100\n      exp\n      swap1\n      div\n      0xffffffffffffffffffffffffffffffffffffffff\n      and\n      dup2\n      jump\t// out\n        /* \"Campaign.sol\":889:915  uint public approversCount */\n    tag_44:\n      sload(0x05)\n      dup2\n      jump\t// out\n        /* \"Campaign.sol\":1444:1814  function createRequest(string memory description, uint value, address payable recipient) public payable restricted {... */\n    tag_49:\n        /* \"Campaign.sol\":976:983  manager */\n      0x02\n      0x00\n      swap1\n      sload\n      swap1\n      0x0100\n      exp\n      swap1\n      div\n      0xffffffffffffffffffffffffffffffffffffffff\n      and\n        /* \"Campaign.sol\":962:983  msg.sender == manager */\n      0xffffffffffffffffffffffffffffffffffffffff\n      and\n        /* \"Campaign.sol\":962:972  msg.sender */\n      caller\n        /* \"Campaign.sol\":962:983  msg.sender == manager */\n      0xffffffffffffffffffffffffffffffffffffffff\n      and\n      eq\n        /* \"Campaign.sol\":954:984  require(msg.sender == manager) */\n      tag_81\n      jumpi\n      0x00\n      dup1\n      revert\n    tag_81:\n        /* \"Campaign.sol\":1570:1587  Request storage r */\n      0x00\n        /* \"Campaign.sol\":1590:1601  requestsMap */\n      0x01\n        /* \"Campaign.sol\":1590:1616  requestsMap[numRequests++] */\n      0x00\n        /* \"Campaign.sol\":1602:1613  numRequests */\n      dup1\n      0x00\n        /* \"Campaign.sol\":1602:1615  numRequests++ */\n      dup2\n      sload\n      dup1\n      swap3\n      swap2\n      swap1\n      tag_83\n      swap1\n      tag_84\n      jump\t// in\n    tag_83:\n      swap2\n      swap1\n      pop\n      sstore\n        /* \"Campaign.sol\":1590:1616  requestsMap[numRequests++] */\n      dup2\n      mstore\n      0x20\n      add\n      swap1\n      dup2\n      mstore\n      0x20\n      add\n      0x00\n      keccak256\n        /* \"Campaign.sol\":1570:1616  Request storage r = requestsMap[numRequests++] */\n      swap1\n      pop\n        /* \"Campaign.sol\":1642:1653  description */\n      dup4\n        /* \"Campaign.sol\":1626:1627  r */\n      dup2\n        /* \"Campaign.sol\":1626:1639  r.description */\n      0x00\n      add\n        /* \"Campaign.sol\":1626:1653  r.description = description */\n      swap1\n      dup2\n      tag_85\n      swap2\n      swap1\n      tag_86\n      jump\t// in\n    tag_85:\n      pop\n        /* \"Campaign.sol\":1673:1678  value */\n      dup3\n        /* \"Campaign.sol\":1663:1664  r */\n      dup2\n        /* \"Campaign.sol\":1663:1670  r.value */\n      0x01\n      add\n        /* \"Campaign.sol\":1663:1678  r.value = value */\n      dup2\n      swap1\n      sstore\n      pop\n        /* \"Campaign.sol\":1702:1711  recipient */\n      dup2\n        /* \"Campaign.sol\":1688:1689  r */\n      dup2\n        /* \"Campaign.sol\":1688:1699  r.recipient */\n      0x02\n      add\n      0x00\n        /* \"Campaign.sol\":1688:1711  r.recipient = recipient */\n      0x0100\n      exp\n      dup2\n      sload\n      dup2\n      0xffffffffffffffffffffffffffffffffffffffff\n      mul\n      not\n      and\n      swap1\n      dup4\n      0xffffffffffffffffffffffffffffffffffffffff\n      and\n      mul\n      or\n      swap1\n      sstore\n      pop\n        /* \"Campaign.sol\":1734:1739  false */\n      0x00\n        /* \"Campaign.sol\":1721:1722  r */\n      dup2\n        /* \"Campaign.sol\":1721:1731  r.complete */\n      0x02\n      add\n      0x14\n        /* \"Campaign.sol\":1721:1739  r.complete = false */\n      0x0100\n      exp\n      dup2\n      sload\n      dup2\n      0xff\n      mul\n      not\n      and\n      swap1\n      dup4\n      iszero\n      iszero\n      mul\n      or\n      swap1\n      sstore\n      pop\n        /* \"Campaign.sol\":1767:1768  0 */\n      0x00\n        /* \"Campaign.sol\":1749:1750  r */\n      dup2\n        /* \"Campaign.sol\":1749:1764  r.approvalCount */\n      0x03\n      add\n        /* \"Campaign.sol\":1749:1768  r.approvalCount = 0 */\n      dup2\n      swap1\n      sstore\n      pop\n        /* \"Campaign.sol\":1559:1814  {... */\n      pop\n        /* \"Campaign.sol\":1444:1814  function createRequest(string memory description, uint value, address payable recipient) public payable restricted {... */\n      pop\n      pop\n      pop\n      jump\t// out\n        /* \"Campaign.sol\":805:836  uint public minimumContribution */\n    tag_52:\n      sload(0x03)\n      dup2\n      jump\t// out\n        /* \"Campaign.sol\":653:683  uint256 public numRequests = 0 */\n    tag_56:\n      sload(0x00)\n      dup2\n      jump\t// out\n        /* \"Campaign.sol\":689:736  mapping (uint256 => Request) public requestsMap */\n    tag_61:\n      mstore(0x20, 0x01)\n      dup1\n      0x00\n      mstore\n      keccak256(0x00, 0x40)\n      0x00\n      swap2\n      pop\n      swap1\n      pop\n      dup1\n      0x00\n      add\n      dup1\n      sload\n      tag_87\n      swap1\n      tag_88\n      jump\t// in\n    tag_87:\n      dup1\n      0x1f\n      add\n      0x20\n      dup1\n      swap2\n      div\n      mul\n      0x20\n      add\n      mload(0x40)\n      swap1\n      dup2\n      add\n      0x40\n      mstore\n      dup1\n      swap3\n      swap2\n      swap1\n      dup2\n      dup2\n      mstore\n      0x20\n      add\n      dup3\n      dup1\n      sload\n      tag_89\n      swap1\n      tag_88\n      jump\t// in\n    tag_89:\n      dup1\n      iszero\n      tag_90\n      jumpi\n      dup1\n      0x1f\n      lt\n      tag_91\n      jumpi\n      0x0100\n      dup1\n      dup4\n      sload\n      div\n      mul\n      dup4\n      mstore\n      swap2\n      0x20\n      add\n      swap2\n      jump(tag_90)\n    tag_91:\n      dup3\n      add\n      swap2\n      swap1\n      0x00\n      mstore\n      keccak256(0x00, 0x20)\n      swap1\n    tag_92:\n      dup2\n      sload\n      dup2\n      mstore\n      swap1\n      0x01\n      add\n      swap1\n      0x20\n      add\n      dup1\n      dup4\n      gt\n      tag_92\n      jumpi\n      dup3\n      swap1\n      sub\n      0x1f\n      and\n      dup3\n      add\n      swap2\n    tag_90:\n      pop\n      pop\n      pop\n      pop\n      pop\n      swap1\n      dup1\n      0x01\n      add\n      sload\n      swap1\n      dup1\n      0x02\n      add\n      0x00\n      swap1\n      sload\n      swap1\n      0x0100\n      exp\n      swap1\n      div\n      0xffffffffffffffffffffffffffffffffffffffff\n      and\n      swap1\n      dup1\n      0x02\n      add\n      0x14\n      swap1\n      sload\n      swap1\n      0x0100\n      exp\n      swap1\n      div\n      0xff\n      and\n      swap1\n      dup1\n      0x03\n      add\n      sload\n      swap1\n      pop\n      dup6\n      jump\t// out\n        /* \"Campaign.sol\":1137:1438  function contribute() public payable {... */\n    tag_65:\n        /* \"Campaign.sol\":1253:1272  minimumContribution */\n      sload(0x03)\n        /* \"Campaign.sol\":1240:1249  msg.value */\n      callvalue\n        /* \"Campaign.sol\":1240:1272  msg.value >= minimumContribution */\n      lt\n        /* \"Campaign.sol\":1237:1414  if(msg.value >= minimumContribution){... */\n      tag_94\n      jumpi\n        /* \"Campaign.sol\":1291:1300  approvers */\n      0x04\n        /* \"Campaign.sol\":1291:1312  approvers[msg.sender] */\n      0x00\n        /* \"Campaign.sol\":1301:1311  msg.sender */\n      caller\n        /* \"Campaign.sol\":1291:1312  approvers[msg.sender] */\n      0xffffffffffffffffffffffffffffffffffffffff\n      and\n      0xffffffffffffffffffffffffffffffffffffffff\n      and\n      dup2\n      mstore\n      0x20\n      add\n      swap1\n      dup2\n      mstore\n      0x20\n      add\n      0x00\n      keccak256\n      0x00\n      swap1\n      sload\n      swap1\n      0x0100\n      exp\n      swap1\n      div\n      0xff\n      and\n        /* \"Campaign.sol\":1287:1362  if(!approvers[msg.sender]){... */\n      tag_95\n      jumpi\n        /* \"Campaign.sol\":1331:1345  approversCount */\n      0x05\n      0x00\n        /* \"Campaign.sol\":1331:1347  approversCount++ */\n      dup2\n      sload\n      dup1\n      swap3\n      swap2\n      swap1\n      tag_96\n      swap1\n      tag_84\n      jump\t// in\n    tag_96:\n      swap2\n      swap1\n      pop\n      sstore\n      pop\n        /* \"Campaign.sol\":1287:1362  if(!approvers[msg.sender]){... */\n    tag_95:\n        /* \"Campaign.sol\":1399:1403  true */\n      0x01\n        /* \"Campaign.sol\":1375:1384  approvers */\n      0x04\n        /* \"Campaign.sol\":1375:1396  approvers[msg.sender] */\n      0x00\n        /* \"Campaign.sol\":1385:1395  msg.sender */\n      caller\n        /* \"Campaign.sol\":1375:1396  approvers[msg.sender] */\n      0xffffffffffffffffffffffffffffffffffffffff\n      and\n      0xffffffffffffffffffffffffffffffffffffffff\n      and\n      dup2\n      mstore\n      0x20\n      add\n      swap1\n      dup2\n      mstore\n      0x20\n      add\n      0x00\n      keccak256\n      0x00\n        /* \"Campaign.sol\":1375:1403  approvers[msg.sender] = true */\n      0x0100\n      exp\n      dup2\n      sload\n      dup2\n      0xff\n      mul\n      not\n      and\n      swap1\n      dup4\n      iszero\n      iszero\n      mul\n      or\n      swap1\n      sstore\n      pop\n        /* \"Campaign.sol\":1237:1414  if(msg.value >= minimumContribution){... */\n    tag_94:\n        /* \"Campaign.sol\":1137:1438  function contribute() public payable {... */\n      jump\t// out\n        /* \"Campaign.sol\":1820:2102  function approveRequest(uint index) public payable {... */\n    tag_68:\n        /* \"Campaign.sol\":1881:1904  Request storage request */\n      0x00\n        /* \"Campaign.sol\":1907:1918  requestsMap */\n      0x01\n        /* \"Campaign.sol\":1907:1925  requestsMap[index] */\n      0x00\n        /* \"Campaign.sol\":1919:1924  index */\n      dup4\n        /* \"Campaign.sol\":1907:1925  requestsMap[index] */\n      dup2\n      mstore\n      0x20\n      add\n      swap1\n      dup2\n      mstore\n      0x20\n      add\n      0x00\n      keccak256\n        /* \"Campaign.sol\":1881:1925  Request storage request = requestsMap[index] */\n      swap1\n      pop\n        /* \"Campaign.sol\":1944:1953  approvers */\n      0x04\n        /* \"Campaign.sol\":1944:1965  approvers[msg.sender] */\n      0x00\n        /* \"Campaign.sol\":1954:1964  msg.sender */\n      caller\n        /* \"Campaign.sol\":1944:1965  approvers[msg.sender] */\n      0xffffffffffffffffffffffffffffffffffffffff\n      and\n      0xffffffffffffffffffffffffffffffffffffffff\n      and\n      dup2\n      mstore\n      0x20\n      add\n      swap1\n      dup2\n      mstore\n      0x20\n      add\n      0x00\n      keccak256\n      0x00\n      swap1\n      sload\n      swap1\n      0x0100\n      exp\n      swap1\n      div\n      0xff\n      and\n        /* \"Campaign.sol\":1936:1966  require(approvers[msg.sender]) */\n      tag_98\n      jumpi\n      0x00\n      dup1\n      revert\n    tag_98:\n        /* \"Campaign.sol\":1985:1992  request */\n      dup1\n        /* \"Campaign.sol\":1985:2002  request.approvals */\n      0x04\n      add\n        /* \"Campaign.sol\":1985:2014  request.approvals[msg.sender] */\n      0x00\n        /* \"Campaign.sol\":2003:2013  msg.sender */\n      caller\n        /* \"Campaign.sol\":1985:2014  request.approvals[msg.sender] */\n      0xffffffffffffffffffffffffffffffffffffffff\n      and\n      0xffffffffffffffffffffffffffffffffffffffff\n      and\n      dup2\n      mstore\n      0x20\n      add\n      swap1\n      dup2\n      mstore\n      0x20\n      add\n      0x00\n      keccak256\n      0x00\n      swap1\n      sload\n      swap1\n      0x0100\n      exp\n      swap1\n      div\n      0xff\n      and\n        /* \"Campaign.sol\":1984:2014  !request.approvals[msg.sender] */\n      iszero\n        /* \"Campaign.sol\":1976:2015  require(!request.approvals[msg.sender]) */\n      tag_99\n      jumpi\n      0x00\n      dup1\n      revert\n    tag_99:\n        /* \"Campaign.sol\":2058:2062  true */\n      0x01\n        /* \"Campaign.sol\":2026:2033  request */\n      dup2\n        /* \"Campaign.sol\":2026:2043  request.approvals */\n      0x04\n      add\n        /* \"Campaign.sol\":2026:2055  request.approvals[msg.sender] */\n      0x00\n        /* \"Campaign.sol\":2044:2054  msg.sender */\n      caller\n        /* \"Campaign.sol\":2026:2055  request.approvals[msg.sender] */\n      0xffffffffffffffffffffffffffffffffffffffff\n      and\n      0xffffffffffffffffffffffffffffffffffffffff\n      and\n      dup2\n      mstore\n      0x20\n      add\n      swap1\n      dup2\n      mstore\n      0x20\n      add\n      0x00\n      keccak256\n      0x00\n        /* \"Campaign.sol\":2026:2062  request.approvals[msg.sender] = true */\n      0x0100\n      exp\n      dup2\n      sload\n      dup2\n      0xff\n      mul\n      not\n      and\n      swap1\n      dup4\n      iszero\n      iszero\n      mul\n      or\n      swap1\n      sstore\n      pop\n        /* \"Campaign.sol\":2072:2079  request */\n      dup1\n        /* \"Campaign.sol\":2072:2093  request.approvalCount */\n      0x03\n      add\n      0x00\n        /* \"Campaign.sol\":2072:2095  request.approvalCount++ */\n      dup2\n      sload\n      dup1\n      swap3\n      swap2\n      swap1\n      tag_100\n      swap1\n      tag_84\n      jump\t// in\n    tag_100:\n      swap2\n      swap1\n      pop\n      sstore\n      pop\n        /* \"Campaign.sol\":1871:2102  {... */\n      pop\n        /* \"Campaign.sol\":1820:2102  function approveRequest(uint index) public payable {... */\n      pop\n      jump\t// out\n        /* \"#utility.yul\":7:82   */\n    tag_101:\n        /* \"#utility.yul\":40:46   */\n      0x00\n        /* \"#utility.yul\":73:75   */\n      0x40\n        /* \"#utility.yul\":67:76   */\n      mload\n        /* \"#utility.yul\":57:76   */\n      swap1\n      pop\n        /* \"#utility.yul\":7:82   */\n      swap1\n      jump\t// out\n        /* \"#utility.yul\":88:205   */\n    tag_102:\n        /* \"#utility.yul\":197:198   */\n      0x00\n        /* \"#utility.yul\":194:195   */\n      dup1\n        /* \"#utility.yul\":187:199   */\n      revert\n        /* \"#utility.yul\":211:328   */\n    tag_103:\n        /* \"#utility.yul\":320:321   */\n      0x00\n        /* \"#utility.yul\":317:318   */\n      dup1\n        /* \"#utility.yul\":310:322   */\n      revert\n        /* \"#utility.yul\":334:411   */\n    tag_104:\n        /* \"#utility.yul\":371:378   */\n      0x00\n        /* \"#utility.yul\":400:405   */\n      dup2\n        /* \"#utility.yul\":389:405   */\n      swap1\n      pop\n        /* \"#utility.yul\":334:411   */\n      swap2\n      swap1\n      pop\n      jump\t// out\n        /* \"#utility.yul\":417:539   */\n    tag_105:\n        /* \"#utility.yul\":490:514   */\n      tag_157\n        /* \"#utility.yul\":508:513   */\n      dup2\n        /* \"#utility.yul\":490:514   */\n      tag_104\n      jump\t// in\n    tag_157:\n        /* \"#utility.yul\":483:488   */\n      dup2\n        /* \"#utility.yul\":480:515   */\n      eq\n        /* \"#utility.yul\":470:533   */\n      tag_158\n      jumpi\n        /* \"#utility.yul\":529:530   */\n      0x00\n        /* \"#utility.yul\":526:527   */\n      dup1\n        /* \"#utility.yul\":519:531   */\n      revert\n        /* \"#utility.yul\":470:533   */\n    tag_158:\n        /* \"#utility.yul\":417:539   */\n      pop\n      jump\t// out\n        /* \"#utility.yul\":545:684   */\n    tag_106:\n        /* \"#utility.yul\":591:596   */\n      0x00\n        /* \"#utility.yul\":629:635   */\n      dup2\n        /* \"#utility.yul\":616:636   */\n      calldataload\n        /* \"#utility.yul\":607:636   */\n      swap1\n      pop\n        /* \"#utility.yul\":645:678   */\n      tag_160\n        /* \"#utility.yul\":672:677   */\n      dup2\n        /* \"#utility.yul\":645:678   */\n      tag_105\n      jump\t// in\n    tag_160:\n        /* \"#utility.yul\":545:684   */\n      swap3\n      swap2\n      pop\n      pop\n      jump\t// out\n        /* \"#utility.yul\":690:1019   */\n    tag_18:\n        /* \"#utility.yul\":749:755   */\n      0x00\n        /* \"#utility.yul\":798:800   */\n      0x20\n        /* \"#utility.yul\":786:795   */\n      dup3\n        /* \"#utility.yul\":777:784   */\n      dup5\n        /* \"#utility.yul\":773:796   */\n      sub\n        /* \"#utility.yul\":769:801   */\n      slt\n        /* \"#utility.yul\":766:885   */\n      iszero\n      tag_162\n      jumpi\n        /* \"#utility.yul\":804:883   */\n      tag_163\n      tag_102\n      jump\t// in\n    tag_163:\n        /* \"#utility.yul\":766:885   */\n    tag_162:\n        /* \"#utility.yul\":924:925   */\n      0x00\n        /* \"#utility.yul\":949:1002   */\n      tag_164\n        /* \"#utility.yul\":994:1001   */\n      dup5\n        /* \"#utility.yul\":985:991   */\n      dup3\n        /* \"#utility.yul\":974:983   */\n      dup6\n        /* \"#utility.yul\":970:992   */\n      add\n        /* \"#utility.yul\":949:1002   */\n      tag_106\n      jump\t// in\n    tag_164:\n        /* \"#utility.yul\":939:1002   */\n      swap2\n      pop\n        /* \"#utility.yul\":895:1012   */\n      pop\n        /* \"#utility.yul\":690:1019   */\n      swap3\n      swap2\n      pop\n      pop\n      jump\t// out\n        /* \"#utility.yul\":1025:1151   */\n    tag_107:\n        /* \"#utility.yul\":1062:1069   */\n      0x00\n        /* \"#utility.yul\":1102:1144   */\n      0xffffffffffffffffffffffffffffffffffffffff\n        /* \"#utility.yul\":1095:1100   */\n      dup3\n        /* \"#utility.yul\":1091:1145   */\n      and\n        /* \"#utility.yul\":1080:1145   */\n      swap1\n      pop\n        /* \"#utility.yul\":1025:1151   */\n      swap2\n      swap1\n      pop\n      jump\t// out\n        /* \"#utility.yul\":1157:1253   */\n    tag_108:\n        /* \"#utility.yul\":1194:1201   */\n      0x00\n        /* \"#utility.yul\":1223:1247   */\n      tag_167\n        /* \"#utility.yul\":1241:1246   */\n      dup3\n        /* \"#utility.yul\":1223:1247   */\n      tag_107\n      jump\t// in\n    tag_167:\n        /* \"#utility.yul\":1212:1247   */\n      swap1\n      pop\n        /* \"#utility.yul\":1157:1253   */\n      swap2\n      swap1\n      pop\n      jump\t// out\n        /* \"#utility.yul\":1259:1381   */\n    tag_109:\n        /* \"#utility.yul\":1332:1356   */\n      tag_169\n        /* \"#utility.yul\":1350:1355   */\n      dup2\n        /* \"#utility.yul\":1332:1356   */\n      tag_108\n      jump\t// in\n    tag_169:\n        /* \"#utility.yul\":1325:1330   */\n      dup2\n        /* \"#utility.yul\":1322:1357   */\n      eq\n        /* \"#utility.yul\":1312:1375   */\n      tag_170\n      jumpi\n        /* \"#utility.yul\":1371:1372   */\n      0x00\n        /* \"#utility.yul\":1368:1369   */\n      dup1\n        /* \"#utility.yul\":1361:1373   */\n      revert\n        /* \"#utility.yul\":1312:1375   */\n    tag_170:\n        /* \"#utility.yul\":1259:1381   */\n      pop\n      jump\t// out\n        /* \"#utility.yul\":1387:1526   */\n    tag_110:\n        /* \"#utility.yul\":1433:1438   */\n      0x00\n        /* \"#utility.yul\":1471:1477   */\n      dup2\n        /* \"#utility.yul\":1458:1478   */\n      calldataload\n        /* \"#utility.yul\":1449:1478   */\n      swap1\n      pop\n        /* \"#utility.yul\":1487:1520   */\n      tag_172\n        /* \"#utility.yul\":1514:1519   */\n      dup2\n        /* \"#utility.yul\":1487:1520   */\n      tag_109\n      jump\t// in\n    tag_172:\n        /* \"#utility.yul\":1387:1526   */\n      swap3\n      swap2\n      pop\n      pop\n      jump\t// out\n        /* \"#utility.yul\":1532:1861   */\n    tag_23:\n        /* \"#utility.yul\":1591:1597   */\n      0x00\n        /* \"#utility.yul\":1640:1642   */\n      0x20\n        /* \"#utility.yul\":1628:1637   */\n      dup3\n        /* \"#utility.yul\":1619:1626   */\n      dup5\n        /* \"#utility.yul\":1615:1638   */\n      sub\n        /* \"#utility.yul\":1611:1643   */\n      slt\n        /* \"#utility.yul\":1608:1727   */\n      iszero\n      tag_174\n      jumpi\n        /* \"#utility.yul\":1646:1725   */\n      tag_175\n      tag_102\n      jump\t// in\n    tag_175:\n        /* \"#utility.yul\":1608:1727   */\n    tag_174:\n        /* \"#utility.yul\":1766:1767   */\n      0x00\n        /* \"#utility.yul\":1791:1844   */\n      tag_176\n        /* \"#utility.yul\":1836:1843   */\n      dup5\n        /* \"#utility.yul\":1827:1833   */\n      dup3\n        /* \"#utility.yul\":1816:1825   */\n      dup6\n        /* \"#utility.yul\":1812:1834   */\n      add\n        /* \"#utility.yul\":1791:1844   */\n      tag_110\n      jump\t// in\n    tag_176:\n        /* \"#utility.yul\":1781:1844   */\n      swap2\n      pop\n        /* \"#utility.yul\":1737:1854   */\n      pop\n        /* \"#utility.yul\":1532:1861   */\n      swap3\n      swap2\n      pop\n      pop\n      jump\t// out\n        /* \"#utility.yul\":1867:1957   */\n    tag_111:\n        /* \"#utility.yul\":1901:1908   */\n      0x00\n        /* \"#utility.yul\":1944:1949   */\n      dup2\n        /* \"#utility.yul\":1937:1950   */\n      iszero\n        /* \"#utility.yul\":1930:1951   */\n      iszero\n        /* \"#utility.yul\":1919:1951   */\n      swap1\n      pop\n        /* \"#utility.yul\":1867:1957   */\n      swap2\n      swap1\n      pop\n      jump\t// out\n        /* \"#utility.yul\":1963:2072   */\n    tag_112:\n        /* \"#utility.yul\":2044:2065   */\n      tag_179\n        /* \"#utility.yul\":2059:2064   */\n      dup2\n        /* \"#utility.yul\":2044:2065   */\n      tag_111\n      jump\t// in\n    tag_179:\n        /* \"#utility.yul\":2039:2042   */\n      dup3\n        /* \"#utility.yul\":2032:2066   */\n      mstore\n        /* \"#utility.yul\":1963:2072   */\n      pop\n      pop\n      jump\t// out\n        /* \"#utility.yul\":2078:2288   */\n    tag_26:\n        /* \"#utility.yul\":2165:2169   */\n      0x00\n        /* \"#utility.yul\":2203:2205   */\n      0x20\n        /* \"#utility.yul\":2192:2201   */\n      dup3\n        /* \"#utility.yul\":2188:2206   */\n      add\n        /* \"#utility.yul\":2180:2206   */\n      swap1\n      pop\n        /* \"#utility.yul\":2216:2281   */\n      tag_181\n        /* \"#utility.yul\":2278:2279   */\n      0x00\n        /* \"#utility.yul\":2267:2276   */\n      dup4\n        /* \"#utility.yul\":2263:2280   */\n      add\n        /* \"#utility.yul\":2254:2260   */\n      dup5\n        /* \"#utility.yul\":2216:2281   */\n      tag_112\n      jump\t// in\n    tag_181:\n        /* \"#utility.yul\":2078:2288   */\n      swap3\n      swap2\n      pop\n      pop\n      jump\t// out\n        /* \"#utility.yul\":2294:2412   */\n    tag_113:\n        /* \"#utility.yul\":2381:2405   */\n      tag_183\n        /* \"#utility.yul\":2399:2404   */\n      dup2\n        /* \"#utility.yul\":2381:2405   */\n      tag_104\n      jump\t// in\n    tag_183:\n        /* \"#utility.yul\":2376:2379   */\n      dup3\n        /* \"#utility.yul\":2369:2406   */\n      mstore\n        /* \"#utility.yul\":2294:2412   */\n      pop\n      pop\n      jump\t// out\n        /* \"#utility.yul\":2418:2640   */\n    tag_31:\n        /* \"#utility.yul\":2511:2515   */\n      0x00\n        /* \"#utility.yul\":2549:2551   */\n      0x20\n        /* \"#utility.yul\":2538:2547   */\n      dup3\n        /* \"#utility.yul\":2534:2552   */\n      add\n        /* \"#utility.yul\":2526:2552   */\n      swap1\n      pop\n        /* \"#utility.yul\":2562:2633   */\n      tag_185\n        /* \"#utility.yul\":2630:2631   */\n      0x00\n        /* \"#utility.yul\":2619:2628   */\n      dup4\n        /* \"#utility.yul\":2615:2632   */\n      add\n        /* \"#utility.yul\":2606:2612   */\n      dup5\n        /* \"#utility.yul\":2562:2633   */\n      tag_113\n      jump\t// in\n    tag_185:\n        /* \"#utility.yul\":2418:2640   */\n      swap3\n      swap2\n      pop\n      pop\n      jump\t// out\n        /* \"#utility.yul\":2646:2764   */\n    tag_114:\n        /* \"#utility.yul\":2733:2757   */\n      tag_187\n        /* \"#utility.yul\":2751:2756   */\n      dup2\n        /* \"#utility.yul\":2733:2757   */\n      tag_108\n      jump\t// in\n    tag_187:\n        /* \"#utility.yul\":2728:2731   */\n      dup3\n        /* \"#utility.yul\":2721:2758   */\n      mstore\n        /* \"#utility.yul\":2646:2764   */\n      pop\n      pop\n      jump\t// out\n        /* \"#utility.yul\":2770:3434   */\n    tag_36:\n        /* \"#utility.yul\":2975:2979   */\n      0x00\n        /* \"#utility.yul\":3013:3016   */\n      0xa0\n        /* \"#utility.yul\":3002:3011   */\n      dup3\n        /* \"#utility.yul\":2998:3017   */\n      add\n        /* \"#utility.yul\":2990:3017   */\n      swap1\n      pop\n        /* \"#utility.yul\":3027:3098   */\n      tag_189\n        /* \"#utility.yul\":3095:3096   */\n      0x00\n        /* \"#utility.yul\":3084:3093   */\n      dup4\n        /* \"#utility.yul\":3080:3097   */\n      add\n        /* \"#utility.yul\":3071:3077   */\n      dup9\n        /* \"#utility.yul\":3027:3098   */\n      tag_113\n      jump\t// in\n    tag_189:\n        /* \"#utility.yul\":3108:3180   */\n      tag_190\n        /* \"#utility.yul\":3176:3178   */\n      0x20\n        /* \"#utility.yul\":3165:3174   */\n      dup4\n        /* \"#utility.yul\":3161:3179   */\n      add\n        /* \"#utility.yul\":3152:3158   */\n      dup8\n        /* \"#utility.yul\":3108:3180   */\n      tag_113\n      jump\t// in\n    tag_190:\n        /* \"#utility.yul\":3190:3262   */\n      tag_191\n        /* \"#utility.yul\":3258:3260   */\n      0x40\n        /* \"#utility.yul\":3247:3256   */\n      dup4\n        /* \"#utility.yul\":3243:3261   */\n      add\n        /* \"#utility.yul\":3234:3240   */\n      dup7\n        /* \"#utility.yul\":3190:3262   */\n      tag_113\n      jump\t// in\n    tag_191:\n        /* \"#utility.yul\":3272:3344   */\n      tag_192\n        /* \"#utility.yul\":3340:3342   */\n      0x60\n        /* \"#utility.yul\":3329:3338   */\n      dup4\n        /* \"#utility.yul\":3325:3343   */\n      add\n        /* \"#utility.yul\":3316:3322   */\n      dup6\n        /* \"#utility.yul\":3272:3344   */\n      tag_113\n      jump\t// in\n    tag_192:\n        /* \"#utility.yul\":3354:3427   */\n      tag_193\n        /* \"#utility.yul\":3422:3425   */\n      0x80\n        /* \"#utility.yul\":3411:3420   */\n      dup4\n        /* \"#utility.yul\":3407:3426   */\n      add\n        /* \"#utility.yul\":3398:3404   */\n      dup5\n        /* \"#utility.yul\":3354:3427   */\n      tag_114\n      jump\t// in\n    tag_193:\n        /* \"#utility.yul\":2770:3434   */\n      swap7\n      swap6\n      pop\n      pop\n      pop\n      pop\n      pop\n      pop\n      jump\t// out\n        /* \"#utility.yul\":3440:3662   */\n    tag_41:\n        /* \"#utility.yul\":3533:3537   */\n      0x00\n        /* \"#utility.yul\":3571:3573   */\n      0x20\n        /* \"#utility.yul\":3560:3569   */\n      dup3\n        /* \"#utility.yul\":3556:3574   */\n      add\n        /* \"#utility.yul\":3548:3574   */\n      swap1\n      pop\n        /* \"#utility.yul\":3584:3655   */\n      tag_195\n        /* \"#utility.yul\":3652:3653   */\n      0x00\n        /* \"#utility.yul\":3641:3650   */\n      dup4\n        /* \"#utility.yul\":3637:3654   */\n      add\n        /* \"#utility.yul\":3628:3634   */\n      dup5\n        /* \"#utility.yul\":3584:3655   */\n      tag_114\n      jump\t// in\n    tag_195:\n        /* \"#utility.yul\":3440:3662   */\n      swap3\n      swap2\n      pop\n      pop\n      jump\t// out\n        /* \"#utility.yul\":3668:3785   */\n    tag_115:\n        /* \"#utility.yul\":3777:3778   */\n      0x00\n        /* \"#utility.yul\":3774:3775   */\n      dup1\n        /* \"#utility.yul\":3767:3779   */\n      revert\n        /* \"#utility.yul\":3791:3908   */\n    tag_116:\n        /* \"#utility.yul\":3900:3901   */\n      0x00\n        /* \"#utility.yul\":3897:3898   */\n      dup1\n        /* \"#utility.yul\":3890:3902   */\n      revert\n        /* \"#utility.yul\":3914:4016   */\n    tag_117:\n        /* \"#utility.yul\":3955:3961   */\n      0x00\n        /* \"#utility.yul\":4006:4008   */\n      0x1f\n        /* \"#utility.yul\":4002:4009   */\n      not\n        /* \"#utility.yul\":3997:3999   */\n      0x1f\n        /* \"#utility.yul\":3990:3995   */\n      dup4\n        /* \"#utility.yul\":3986:4000   */\n      add\n        /* \"#utility.yul\":3982:4010   */\n      and\n        /* \"#utility.yul\":3972:4010   */\n      swap1\n      pop\n        /* \"#utility.yul\":3914:4016   */\n      swap2\n      swap1\n      pop\n      jump\t// out\n        /* \"#utility.yul\":4022:4202   */\n    tag_118:\n        /* \"#utility.yul\":4070:4147   */\n      0x4e487b7100000000000000000000000000000000000000000000000000000000\n        /* \"#utility.yul\":4067:4068   */\n      0x00\n        /* \"#utility.yul\":4060:4148   */\n      mstore\n        /* \"#utility.yul\":4167:4171   */\n      0x41\n        /* \"#utility.yul\":4164:4165   */\n      0x04\n        /* \"#utility.yul\":4157:4172   */\n      mstore\n        /* \"#utility.yul\":4191:4195   */\n      0x24\n        /* \"#utility.yul\":4188:4189   */\n      0x00\n        /* \"#utility.yul\":4181:4196   */\n      revert\n        /* \"#utility.yul\":4208:4489   */\n    tag_119:\n        /* \"#utility.yul\":4291:4318   */\n      tag_201\n        /* \"#utility.yul\":4313:4317   */\n      dup3\n        /* \"#utility.yul\":4291:4318   */\n      tag_117\n      jump\t// in\n    tag_201:\n        /* \"#utility.yul\":4283:4289   */\n      dup2\n        /* \"#utility.yul\":4279:4319   */\n      add\n        /* \"#utility.yul\":4421:4427   */\n      dup2\n        /* \"#utility.yul\":4409:4419   */\n      dup2\n        /* \"#utility.yul\":4406:4428   */\n      lt\n        /* \"#utility.yul\":4385:4403   */\n      0xffffffffffffffff\n        /* \"#utility.yul\":4373:4383   */\n      dup3\n        /* \"#utility.yul\":4370:4404   */\n      gt\n        /* \"#utility.yul\":4367:4429   */\n      or\n        /* \"#utility.yul\":4364:4452   */\n      iszero\n      tag_202\n      jumpi\n        /* \"#utility.yul\":4432:4450   */\n      tag_203\n      tag_118\n      jump\t// in\n    tag_203:\n        /* \"#utility.yul\":4364:4452   */\n    tag_202:\n        /* \"#utility.yul\":4472:4482   */\n      dup1\n        /* \"#utility.yul\":4468:4470   */\n      0x40\n        /* \"#utility.yul\":4461:4483   */\n      mstore\n        /* \"#utility.yul\":4251:4489   */\n      pop\n        /* \"#utility.yul\":4208:4489   */\n      pop\n      pop\n      jump\t// out\n        /* \"#utility.yul\":4495:4624   */\n    tag_120:\n        /* \"#utility.yul\":4529:4535   */\n      0x00\n        /* \"#utility.yul\":4556:4576   */\n      tag_205\n      tag_101\n      jump\t// in\n    tag_205:\n        /* \"#utility.yul\":4546:4576   */\n      swap1\n      pop\n        /* \"#utility.yul\":4585:4618   */\n      tag_206\n        /* \"#utility.yul\":4613:4617   */\n      dup3\n        /* \"#utility.yul\":4605:4611   */\n      dup3\n        /* \"#utility.yul\":4585:4618   */\n      tag_119\n      jump\t// in\n    tag_206:\n        /* \"#utility.yul\":4495:4624   */\n      swap2\n      swap1\n      pop\n      jump\t// out\n        /* \"#utility.yul\":4630:4938   */\n    tag_121:\n        /* \"#utility.yul\":4692:4696   */\n      0x00\n        /* \"#utility.yul\":4782:4800   */\n      0xffffffffffffffff\n        /* \"#utility.yul\":4774:4780   */\n      dup3\n        /* \"#utility.yul\":4771:4801   */\n      gt\n        /* \"#utility.yul\":4768:4824   */\n      iszero\n      tag_208\n      jumpi\n        /* \"#utility.yul\":4804:4822   */\n      tag_209\n      tag_118\n      jump\t// in\n    tag_209:\n        /* \"#utility.yul\":4768:4824   */\n    tag_208:\n        /* \"#utility.yul\":4842:4871   */\n      tag_210\n        /* \"#utility.yul\":4864:4870   */\n      dup3\n        /* \"#utility.yul\":4842:4871   */\n      tag_117\n      jump\t// in\n    tag_210:\n        /* \"#utility.yul\":4834:4871   */\n      swap1\n      pop\n        /* \"#utility.yul\":4926:4930   */\n      0x20\n        /* \"#utility.yul\":4920:4924   */\n      dup2\n        /* \"#utility.yul\":4916:4931   */\n      add\n        /* \"#utility.yul\":4908:4931   */\n      swap1\n      pop\n        /* \"#utility.yul\":4630:4938   */\n      swap2\n      swap1\n      pop\n      jump\t// out\n        /* \"#utility.yul\":4944:5090   */\n    tag_122:\n        /* \"#utility.yul\":5041:5047   */\n      dup3\n        /* \"#utility.yul\":5036:5039   */\n      dup2\n        /* \"#utility.yul\":5031:5034   */\n      dup4\n        /* \"#utility.yul\":5018:5048   */\n      calldatacopy\n        /* \"#utility.yul\":5082:5083   */\n      0x00\n        /* \"#utility.yul\":5073:5079   */\n      dup4\n        /* \"#utility.yul\":5068:5071   */\n      dup4\n        /* \"#utility.yul\":5064:5080   */\n      add\n        /* \"#utility.yul\":5057:5084   */\n      mstore\n        /* \"#utility.yul\":4944:5090   */\n      pop\n      pop\n      pop\n      jump\t// out\n        /* \"#utility.yul\":5096:5521   */\n    tag_123:\n        /* \"#utility.yul\":5174:5179   */\n      0x00\n        /* \"#utility.yul\":5199:5265   */\n      tag_213\n        /* \"#utility.yul\":5215:5264   */\n      tag_214\n        /* \"#utility.yul\":5257:5263   */\n      dup5\n        /* \"#utility.yul\":5215:5264   */\n      tag_121\n      jump\t// in\n    tag_214:\n        /* \"#utility.yul\":5199:5265   */\n      tag_120\n      jump\t// in\n    tag_213:\n        /* \"#utility.yul\":5190:5265   */\n      swap1\n      pop\n        /* \"#utility.yul\":5288:5294   */\n      dup3\n        /* \"#utility.yul\":5281:5286   */\n      dup2\n        /* \"#utility.yul\":5274:5295   */\n      mstore\n        /* \"#utility.yul\":5326:5330   */\n      0x20\n        /* \"#utility.yul\":5319:5324   */\n      dup2\n        /* \"#utility.yul\":5315:5331   */\n      add\n        /* \"#utility.yul\":5364:5367   */\n      dup5\n        /* \"#utility.yul\":5355:5361   */\n      dup5\n        /* \"#utility.yul\":5350:5353   */\n      dup5\n        /* \"#utility.yul\":5346:5362   */\n      add\n        /* \"#utility.yul\":5343:5368   */\n      gt\n        /* \"#utility.yul\":5340:5452   */\n      iszero\n      tag_215\n      jumpi\n        /* \"#utility.yul\":5371:5450   */\n      tag_216\n      tag_116\n      jump\t// in\n    tag_216:\n        /* \"#utility.yul\":5340:5452   */\n    tag_215:\n        /* \"#utility.yul\":5461:5515   */\n      tag_217\n        /* \"#utility.yul\":5508:5514   */\n      dup5\n        /* \"#utility.yul\":5503:5506   */\n      dup3\n        /* \"#utility.yul\":5498:5501   */\n      dup6\n        /* \"#utility.yul\":5461:5515   */\n      tag_122\n      jump\t// in\n    tag_217:\n        /* \"#utility.yul\":5180:5521   */\n      pop\n        /* \"#utility.yul\":5096:5521   */\n      swap4\n      swap3\n      pop\n      pop\n      pop\n      jump\t// out\n        /* \"#utility.yul\":5541:5881   */\n    tag_124:\n        /* \"#utility.yul\":5597:5602   */\n      0x00\n        /* \"#utility.yul\":5646:5649   */\n      dup3\n        /* \"#utility.yul\":5639:5643   */\n      0x1f\n        /* \"#utility.yul\":5631:5637   */\n      dup4\n        /* \"#utility.yul\":5627:5644   */\n      add\n        /* \"#utility.yul\":5623:5650   */\n      slt\n        /* \"#utility.yul\":5613:5735   */\n      tag_219\n      jumpi\n        /* \"#utility.yul\":5654:5733   */\n      tag_220\n      tag_115\n      jump\t// in\n    tag_220:\n        /* \"#utility.yul\":5613:5735   */\n    tag_219:\n        /* \"#utility.yul\":5771:5777   */\n      dup2\n        /* \"#utility.yul\":5758:5778   */\n      calldataload\n        /* \"#utility.yul\":5796:5875   */\n      tag_221\n        /* \"#utility.yul\":5871:5874   */\n      dup5\n        /* \"#utility.yul\":5863:5869   */\n      dup3\n        /* \"#utility.yul\":5856:5860   */\n      0x20\n        /* \"#utility.yul\":5848:5854   */\n      dup7\n        /* \"#utility.yul\":5844:5861   */\n      add\n        /* \"#utility.yul\":5796:5875   */\n      tag_123\n      jump\t// in\n    tag_221:\n        /* \"#utility.yul\":5787:5875   */\n      swap2\n      pop\n        /* \"#utility.yul\":5603:5881   */\n      pop\n        /* \"#utility.yul\":5541:5881   */\n      swap3\n      swap2\n      pop\n      pop\n      jump\t// out\n        /* \"#utility.yul\":5887:5991   */\n    tag_125:\n        /* \"#utility.yul\":5932:5939   */\n      0x00\n        /* \"#utility.yul\":5961:5985   */\n      tag_223\n        /* \"#utility.yul\":5979:5984   */\n      dup3\n        /* \"#utility.yul\":5961:5985   */\n      tag_107\n      jump\t// in\n    tag_223:\n        /* \"#utility.yul\":5950:5985   */\n      swap1\n      pop\n        /* \"#utility.yul\":5887:5991   */\n      swap2\n      swap1\n      pop\n      jump\t// out\n        /* \"#utility.yul\":5997:6135   */\n    tag_126:\n        /* \"#utility.yul\":6078:6110   */\n      tag_225\n        /* \"#utility.yul\":6104:6109   */\n      dup2\n        /* \"#utility.yul\":6078:6110   */\n      tag_125\n      jump\t// in\n    tag_225:\n        /* \"#utility.yul\":6071:6076   */\n      dup2\n        /* \"#utility.yul\":6068:6111   */\n      eq\n        /* \"#utility.yul\":6058:6129   */\n      tag_226\n      jumpi\n        /* \"#utility.yul\":6125:6126   */\n      0x00\n        /* \"#utility.yul\":6122:6123   */\n      dup1\n        /* \"#utility.yul\":6115:6127   */\n      revert\n        /* \"#utility.yul\":6058:6129   */\n    tag_226:\n        /* \"#utility.yul\":5997:6135   */\n      pop\n      jump\t// out\n        /* \"#utility.yul\":6141:6296   */\n    tag_127:\n        /* \"#utility.yul\":6195:6200   */\n      0x00\n        /* \"#utility.yul\":6233:6239   */\n      dup2\n        /* \"#utility.yul\":6220:6240   */\n      calldataload\n        /* \"#utility.yul\":6211:6240   */\n      swap1\n      pop\n        /* \"#utility.yul\":6249:6290   */\n      tag_228\n        /* \"#utility.yul\":6284:6289   */\n      dup2\n        /* \"#utility.yul\":6249:6290   */\n      tag_126\n      jump\t// in\n    tag_228:\n        /* \"#utility.yul\":6141:6296   */\n      swap3\n      swap2\n      pop\n      pop\n      jump\t// out\n        /* \"#utility.yul\":6302:7117   */\n    tag_48:\n        /* \"#utility.yul\":6397:6403   */\n      0x00\n        /* \"#utility.yul\":6405:6411   */\n      dup1\n        /* \"#utility.yul\":6413:6419   */\n      0x00\n        /* \"#utility.yul\":6462:6464   */\n      0x60\n        /* \"#utility.yul\":6450:6459   */\n      dup5\n        /* \"#utility.yul\":6441:6448   */\n      dup7\n        /* \"#utility.yul\":6437:6460   */\n      sub\n        /* \"#utility.yul\":6433:6465   */\n      slt\n        /* \"#utility.yul\":6430:6549   */\n      iszero\n      tag_230\n      jumpi\n        /* \"#utility.yul\":6468:6547   */\n      tag_231\n      tag_102\n      jump\t// in\n    tag_231:\n        /* \"#utility.yul\":6430:6549   */\n    tag_230:\n        /* \"#utility.yul\":6616:6617   */\n      0x00\n        /* \"#utility.yul\":6605:6614   */\n      dup5\n        /* \"#utility.yul\":6601:6618   */\n      add\n        /* \"#utility.yul\":6588:6619   */\n      calldataload\n        /* \"#utility.yul\":6646:6664   */\n      0xffffffffffffffff\n        /* \"#utility.yul\":6638:6644   */\n      dup2\n        /* \"#utility.yul\":6635:6665   */\n      gt\n        /* \"#utility.yul\":6632:6749   */\n      iszero\n      tag_232\n      jumpi\n        /* \"#utility.yul\":6668:6747   */\n      tag_233\n      tag_103\n      jump\t// in\n    tag_233:\n        /* \"#utility.yul\":6632:6749   */\n    tag_232:\n        /* \"#utility.yul\":6773:6836   */\n      tag_234\n        /* \"#utility.yul\":6828:6835   */\n      dup7\n        /* \"#utility.yul\":6819:6825   */\n      dup3\n        /* \"#utility.yul\":6808:6817   */\n      dup8\n        /* \"#utility.yul\":6804:6826   */\n      add\n        /* \"#utility.yul\":6773:6836   */\n      tag_124\n      jump\t// in\n    tag_234:\n        /* \"#utility.yul\":6763:6836   */\n      swap4\n      pop\n        /* \"#utility.yul\":6559:6846   */\n      pop\n        /* \"#utility.yul\":6885:6887   */\n      0x20\n        /* \"#utility.yul\":6911:6964   */\n      tag_235\n        /* \"#utility.yul\":6956:6963   */\n      dup7\n        /* \"#utility.yul\":6947:6953   */\n      dup3\n        /* \"#utility.yul\":6936:6945   */\n      dup8\n        /* \"#utility.yul\":6932:6954   */\n      add\n        /* \"#utility.yul\":6911:6964   */\n      tag_106\n      jump\t// in\n    tag_235:\n        /* \"#utility.yul\":6901:6964   */\n      swap3\n      pop\n        /* \"#utility.yul\":6856:6974   */\n      pop\n        /* \"#utility.yul\":7013:7015   */\n      0x40\n        /* \"#utility.yul\":7039:7100   */\n      tag_236\n        /* \"#utility.yul\":7092:7099   */\n      dup7\n        /* \"#utility.yul\":7083:7089   */\n      dup3\n        /* \"#utility.yul\":7072:7081   */\n      dup8\n        /* \"#utility.yul\":7068:7090   */\n      add\n        /* \"#utility.yul\":7039:7100   */\n      tag_127\n      jump\t// in\n    tag_236:\n        /* \"#utility.yul\":7029:7100   */\n      swap2\n      pop\n        /* \"#utility.yul\":6984:7110   */\n      pop\n        /* \"#utility.yul\":6302:7117   */\n      swap3\n      pop\n      swap3\n      pop\n      swap3\n      jump\t// out\n        /* \"#utility.yul\":7123:7222   */\n    tag_128:\n        /* \"#utility.yul\":7175:7181   */\n      0x00\n        /* \"#utility.yul\":7209:7214   */\n      dup2\n        /* \"#utility.yul\":7203:7215   */\n      mload\n        /* \"#utility.yul\":7193:7215   */\n      swap1\n      pop\n        /* \"#utility.yul\":7123:7222   */\n      swap2\n      swap1\n      pop\n      jump\t// out\n        /* \"#utility.yul\":7228:7397   */\n    tag_129:\n        /* \"#utility.yul\":7312:7323   */\n      0x00\n        /* \"#utility.yul\":7346:7352   */\n      dup3\n        /* \"#utility.yul\":7341:7344   */\n      dup3\n        /* \"#utility.yul\":7334:7353   */\n      mstore\n        /* \"#utility.yul\":7386:7390   */\n      0x20\n        /* \"#utility.yul\":7381:7384   */\n      dup3\n        /* \"#utility.yul\":7377:7391   */\n      add\n        /* \"#utility.yul\":7362:7391   */\n      swap1\n      pop\n        /* \"#utility.yul\":7228:7397   */\n      swap3\n      swap2\n      pop\n      pop\n      jump\t// out\n        /* \"#utility.yul\":7403:7649   */\n    tag_130:\n        /* \"#utility.yul\":7484:7485   */\n      0x00\n        /* \"#utility.yul\":7494:7607   */\n    tag_240:\n        /* \"#utility.yul\":7508:7514   */\n      dup4\n        /* \"#utility.yul\":7505:7506   */\n      dup2\n        /* \"#utility.yul\":7502:7515   */\n      lt\n        /* \"#utility.yul\":7494:7607   */\n      iszero\n      tag_242\n      jumpi\n        /* \"#utility.yul\":7593:7594   */\n      dup1\n        /* \"#utility.yul\":7588:7591   */\n      dup3\n        /* \"#utility.yul\":7584:7595   */\n      add\n        /* \"#utility.yul\":7578:7596   */\n      mload\n        /* \"#utility.yul\":7574:7575   */\n      dup2\n        /* \"#utility.yul\":7569:7572   */\n      dup5\n        /* \"#utility.yul\":7565:7576   */\n      add\n        /* \"#utility.yul\":7558:7597   */\n      mstore\n        /* \"#utility.yul\":7530:7532   */\n      0x20\n        /* \"#utility.yul\":7527:7528   */\n      dup2\n        /* \"#utility.yul\":7523:7533   */\n      add\n        /* \"#utility.yul\":7518:7533   */\n      swap1\n      pop\n        /* \"#utility.yul\":7494:7607   */\n      jump(tag_240)\n    tag_242:\n        /* \"#utility.yul\":7641:7642   */\n      0x00\n        /* \"#utility.yul\":7632:7638   */\n      dup5\n        /* \"#utility.yul\":7627:7630   */\n      dup5\n        /* \"#utility.yul\":7623:7639   */\n      add\n        /* \"#utility.yul\":7616:7643   */\n      mstore\n        /* \"#utility.yul\":7465:7649   */\n      pop\n        /* \"#utility.yul\":7403:7649   */\n      pop\n      pop\n      pop\n      jump\t// out\n        /* \"#utility.yul\":7655:8032   */\n    tag_131:\n        /* \"#utility.yul\":7743:7746   */\n      0x00\n        /* \"#utility.yul\":7771:7810   */\n      tag_244\n        /* \"#utility.yul\":7804:7809   */\n      dup3\n        /* \"#utility.yul\":7771:7810   */\n      tag_128\n      jump\t// in\n    tag_244:\n        /* \"#utility.yul\":7826:7897   */\n      tag_245\n        /* \"#utility.yul\":7890:7896   */\n      dup2\n        /* \"#utility.yul\":7885:7888   */\n      dup6\n        /* \"#utility.yul\":7826:7897   */\n      tag_129\n      jump\t// in\n    tag_245:\n        /* \"#utility.yul\":7819:7897   */\n      swap4\n      pop\n        /* \"#utility.yul\":7906:7971   */\n      tag_246\n        /* \"#utility.yul\":7964:7970   */\n      dup2\n        /* \"#utility.yul\":7959:7962   */\n      dup6\n        /* \"#utility.yul\":7952:7956   */\n      0x20\n        /* \"#utility.yul\":7945:7950   */\n      dup7\n        /* \"#utility.yul\":7941:7957   */\n      add\n        /* \"#utility.yul\":7906:7971   */\n      tag_130\n      jump\t// in\n    tag_246:\n        /* \"#utility.yul\":7996:8025   */\n      tag_247\n        /* \"#utility.yul\":8018:8024   */\n      dup2\n        /* \"#utility.yul\":7996:8025   */\n      tag_117\n      jump\t// in\n    tag_247:\n        /* \"#utility.yul\":7991:7994   */\n      dup5\n        /* \"#utility.yul\":7987:8026   */\n      add\n        /* \"#utility.yul\":7980:8026   */\n      swap2\n      pop\n        /* \"#utility.yul\":7747:8032   */\n      pop\n        /* \"#utility.yul\":7655:8032   */\n      swap3\n      swap2\n      pop\n      pop\n      jump\t// out\n        /* \"#utility.yul\":8038:8180   */\n    tag_132:\n        /* \"#utility.yul\":8141:8173   */\n      tag_249\n        /* \"#utility.yul\":8167:8172   */\n      dup2\n        /* \"#utility.yul\":8141:8173   */\n      tag_125\n      jump\t// in\n    tag_249:\n        /* \"#utility.yul\":8136:8139   */\n      dup3\n        /* \"#utility.yul\":8129:8174   */\n      mstore\n        /* \"#utility.yul\":8038:8180   */\n      pop\n      pop\n      jump\t// out\n        /* \"#utility.yul\":8186:8961   */\n    tag_63:\n        /* \"#utility.yul\":8421:8425   */\n      0x00\n        /* \"#utility.yul\":8459:8462   */\n      0xa0\n        /* \"#utility.yul\":8448:8457   */\n      dup3\n        /* \"#utility.yul\":8444:8463   */\n      add\n        /* \"#utility.yul\":8436:8463   */\n      swap1\n      pop\n        /* \"#utility.yul\":8509:8518   */\n      dup2\n        /* \"#utility.yul\":8503:8507   */\n      dup2\n        /* \"#utility.yul\":8499:8519   */\n      sub\n        /* \"#utility.yul\":8495:8496   */\n      0x00\n        /* \"#utility.yul\":8484:8493   */\n      dup4\n        /* \"#utility.yul\":8480:8497   */\n      add\n        /* \"#utility.yul\":8473:8520   */\n      mstore\n        /* \"#utility.yul\":8537:8615   */\n      tag_251\n        /* \"#utility.yul\":8610:8614   */\n      dup2\n        /* \"#utility.yul\":8601:8607   */\n      dup9\n        /* \"#utility.yul\":8537:8615   */\n      tag_131\n      jump\t// in\n    tag_251:\n        /* \"#utility.yul\":8529:8615   */\n      swap1\n      pop\n        /* \"#utility.yul\":8625:8697   */\n      tag_252\n        /* \"#utility.yul\":8693:8695   */\n      0x20\n        /* \"#utility.yul\":8682:8691   */\n      dup4\n        /* \"#utility.yul\":8678:8696   */\n      add\n        /* \"#utility.yul\":8669:8675   */\n      dup8\n        /* \"#utility.yul\":8625:8697   */\n      tag_113\n      jump\t// in\n    tag_252:\n        /* \"#utility.yul\":8707:8795   */\n      tag_253\n        /* \"#utility.yul\":8791:8793   */\n      0x40\n        /* \"#utility.yul\":8780:8789   */\n      dup4\n        /* \"#utility.yul\":8776:8794   */\n      add\n        /* \"#utility.yul\":8767:8773   */\n      dup7\n        /* \"#utility.yul\":8707:8795   */\n      tag_132\n      jump\t// in\n    tag_253:\n        /* \"#utility.yul\":8805:8871   */\n      tag_254\n        /* \"#utility.yul\":8867:8869   */\n      0x60\n        /* \"#utility.yul\":8856:8865   */\n      dup4\n        /* \"#utility.yul\":8852:8870   */\n      add\n        /* \"#utility.yul\":8843:8849   */\n      dup6\n        /* \"#utility.yul\":8805:8871   */\n      tag_112\n      jump\t// in\n    tag_254:\n        /* \"#utility.yul\":8881:8954   */\n      tag_255\n        /* \"#utility.yul\":8949:8952   */\n      0x80\n        /* \"#utility.yul\":8938:8947   */\n      dup4\n        /* \"#utility.yul\":8934:8953   */\n      add\n        /* \"#utility.yul\":8925:8931   */\n      dup5\n        /* \"#utility.yul\":8881:8954   */\n      tag_113\n      jump\t// in\n    tag_255:\n        /* \"#utility.yul\":8186:8961   */\n      swap7\n      swap6\n      pop\n      pop\n      pop\n      pop\n      pop\n      pop\n      jump\t// out\n        /* \"#utility.yul\":8967:9147   */\n    tag_133:\n        /* \"#utility.yul\":9015:9092   */\n      0x4e487b7100000000000000000000000000000000000000000000000000000000\n        /* \"#utility.yul\":9012:9013   */\n      0x00\n        /* \"#utility.yul\":9005:9093   */\n      mstore\n        /* \"#utility.yul\":9112:9116   */\n      0x12\n        /* \"#utility.yul\":9109:9110   */\n      0x04\n        /* \"#utility.yul\":9102:9117   */\n      mstore\n        /* \"#utility.yul\":9136:9140   */\n      0x24\n        /* \"#utility.yul\":9133:9134   */\n      0x00\n        /* \"#utility.yul\":9126:9141   */\n      revert\n        /* \"#utility.yul\":9153:9333   */\n    tag_134:\n        /* \"#utility.yul\":9201:9278   */\n      0x4e487b7100000000000000000000000000000000000000000000000000000000\n        /* \"#utility.yul\":9198:9199   */\n      0x00\n        /* \"#utility.yul\":9191:9279   */\n      mstore\n        /* \"#utility.yul\":9298:9302   */\n      0x11\n        /* \"#utility.yul\":9295:9296   */\n      0x04\n        /* \"#utility.yul\":9288:9303   */\n      mstore\n        /* \"#utility.yul\":9322:9326   */\n      0x24\n        /* \"#utility.yul\":9319:9320   */\n      0x00\n        /* \"#utility.yul\":9312:9327   */\n      revert\n        /* \"#utility.yul\":9339:9524   */\n    tag_73:\n        /* \"#utility.yul\":9379:9380   */\n      0x00\n        /* \"#utility.yul\":9396:9416   */\n      tag_259\n        /* \"#utility.yul\":9414:9415   */\n      dup3\n        /* \"#utility.yul\":9396:9416   */\n      tag_104\n      jump\t// in\n    tag_259:\n        /* \"#utility.yul\":9391:9416   */\n      swap2\n      pop\n        /* \"#utility.yul\":9430:9450   */\n      tag_260\n        /* \"#utility.yul\":9448:9449   */\n      dup4\n        /* \"#utility.yul\":9430:9450   */\n      tag_104\n      jump\t// in\n    tag_260:\n        /* \"#utility.yul\":9425:9450   */\n      swap3\n      pop\n        /* \"#utility.yul\":9469:9470   */\n      dup3\n        /* \"#utility.yul\":9459:9494   */\n      tag_261\n      jumpi\n        /* \"#utility.yul\":9474:9492   */\n      tag_262\n      tag_133\n      jump\t// in\n    tag_262:\n        /* \"#utility.yul\":9459:9494   */\n    tag_261:\n        /* \"#utility.yul\":9516:9517   */\n      dup3\n        /* \"#utility.yul\":9513:9514   */\n      dup3\n        /* \"#utility.yul\":9509:9518   */\n      div\n        /* \"#utility.yul\":9504:9518   */\n      swap1\n      pop\n        /* \"#utility.yul\":9339:9524   */\n      swap3\n      swap2\n      pop\n      pop\n      jump\t// out\n        /* \"#utility.yul\":9530:9763   */\n    tag_84:\n        /* \"#utility.yul\":9569:9572   */\n      0x00\n        /* \"#utility.yul\":9592:9616   */\n      tag_264\n        /* \"#utility.yul\":9610:9615   */\n      dup3\n        /* \"#utility.yul\":9592:9616   */\n      tag_104\n      jump\t// in\n    tag_264:\n        /* \"#utility.yul\":9583:9616   */\n      swap2\n      pop\n        /* \"#utility.yul\":9638:9704   */\n      0xffffffffffffffffffffffffffffffffffffffffffffffffffffffffffffffff\n        /* \"#utility.yul\":9631:9636   */\n      dup3\n        /* \"#utility.yul\":9628:9705   */\n      sub\n        /* \"#utility.yul\":9625:9728   */\n      tag_265\n      jumpi\n        /* \"#utility.yul\":9708:9726   */\n      tag_266\n      tag_134\n      jump\t// in\n    tag_266:\n        /* \"#utility.yul\":9625:9728   */\n    tag_265:\n        /* \"#utility.yul\":9755:9756   */\n      0x01\n        /* \"#utility.yul\":9748:9753   */\n      dup3\n        /* \"#utility.yul\":9744:9757   */\n      add\n        /* \"#utility.yul\":9737:9757   */\n      swap1\n      pop\n        /* \"#utility.yul\":9530:9763   */\n      swap2\n      swap1\n      pop\n      jump\t// out\n        /* \"#utility.yul\":9769:9949   */\n    tag_135:\n        /* \"#utility.yul\":9817:9894   */\n      0x4e487b7100000000000000000000000000000000000000000000000000000000\n        /* \"#utility.yul\":9814:9815   */\n      0x00\n        /* \"#utility.yul\":9807:9895   */\n      mstore\n        /* \"#utility.yul\":9914:9918   */\n      0x22\n        /* \"#utility.yul\":9911:9912   */\n      0x04\n        /* \"#utility.yul\":9904:9919   */\n      mstore\n        /* \"#utility.yul\":9938:9942   */\n      0x24\n        /* \"#utility.yul\":9935:9936   */\n      0x00\n        /* \"#utility.yul\":9928:9943   */\n      revert\n        /* \"#utility.yul\":9955:10275   */\n    tag_88:\n        /* \"#utility.yul\":9999:10005   */\n      0x00\n        /* \"#utility.yul\":10036:10037   */\n      0x02\n        /* \"#utility.yul\":10030:10034   */\n      dup3\n        /* \"#utility.yul\":10026:10038   */\n      div\n        /* \"#utility.yul\":10016:10038   */\n      swap1\n      pop\n        /* \"#utility.yul\":10083:10084   */\n      0x01\n        /* \"#utility.yul\":10077:10081   */\n      dup3\n        /* \"#utility.yul\":10073:10085   */\n      and\n        /* \"#utility.yul\":10104:10122   */\n      dup1\n        /* \"#utility.yul\":10094:10175   */\n      tag_269\n      jumpi\n        /* \"#utility.yul\":10160:10164   */\n      0x7f\n        /* \"#utility.yul\":10152:10158   */\n      dup3\n        /* \"#utility.yul\":10148:10165   */\n      and\n        /* \"#utility.yul\":10138:10165   */\n      swap2\n      pop\n        /* \"#utility.yul\":10094:10175   */\n    tag_269:\n        /* \"#utility.yul\":10222:10224   */\n      0x20\n        /* \"#utility.yul\":10214:10220   */\n      dup3\n        /* \"#utility.yul\":10211:10225   */\n      lt\n        /* \"#utility.yul\":10191:10209   */\n      dup2\n        /* \"#utility.yul\":10188:10226   */\n      sub\n        /* \"#utility.yul\":10185:10269   */\n      tag_270\n      jumpi\n        /* \"#utility.yul\":10241:10259   */\n      tag_271\n      tag_135\n      jump\t// in\n    tag_271:\n        /* \"#utility.yul\":10185:10269   */\n    tag_270:\n        /* \"#utility.yul\":10006:10275   */\n      pop\n        /* \"#utility.yul\":9955:10275   */\n      swap2\n      swap1\n      pop\n      jump\t// out\n        /* \"#utility.yul\":10281:10422   */\n    tag_136:\n        /* \"#utility.yul\":10330:10334   */\n      0x00\n        /* \"#utility.yul\":10353:10356   */\n      dup2\n        /* \"#utility.yul\":10345:10356   */\n      swap1\n      pop\n        /* \"#utility.yul\":10376:10379   */\n      dup2\n        /* \"#utility.yul\":10373:10374   */\n      0x00\n        /* \"#utility.yul\":10366:10380   */\n      mstore\n        /* \"#utility.yul\":10410:10414   */\n      0x20\n        /* \"#utility.yul\":10407:10408   */\n      0x00\n        /* \"#utility.yul\":10397:10415   */\n      keccak256\n        /* \"#utility.yul\":10389:10415   */\n      swap1\n      pop\n        /* \"#utility.yul\":10281:10422   */\n      swap2\n      swap1\n      pop\n      jump\t// out\n        /* \"#utility.yul\":10428:10521   */\n    tag_137:\n        /* \"#utility.yul\":10465:10471   */\n      0x00\n        /* \"#utility.yul\":10512:10514   */\n      0x20\n        /* \"#utility.yul\":10507:10509   */\n      0x1f\n        /* \"#utility.yul\":10500:10505   */\n      dup4\n        /* \"#utility.yul\":10496:10510   */\n      add\n        /* \"#utility.yul\":10492:10515   */\n      div\n        /* \"#utility.yul\":10482:10515   */\n      swap1\n      pop\n        /* \"#utility.yul\":10428:10521   */\n      swap2\n      swap1\n      pop\n      jump\t// out\n        /* \"#utility.yul\":10527:10634   */\n    tag_138:\n        /* \"#utility.yul\":10571:10579   */\n      0x00\n        /* \"#utility.yul\":10621:10626   */\n      dup3\n        /* \"#utility.yul\":10615:10619   */\n      dup3\n        /* \"#utility.yul\":10611:10627   */\n      shl\n        /* \"#utility.yul\":10590:10627   */\n      swap1\n      pop\n        /* \"#utility.yul\":10527:10634   */\n      swap3\n      swap2\n      pop\n      pop\n      jump\t// out\n        /* \"#utility.yul\":10640:11033   */\n    tag_139:\n        /* \"#utility.yul\":10709:10715   */\n      0x00\n        /* \"#utility.yul\":10759:10760   */\n      0x08\n        /* \"#utility.yul\":10747:10757   */\n      dup4\n        /* \"#utility.yul\":10743:10761   */\n      mul\n        /* \"#utility.yul\":10782:10879   */\n      tag_276\n        /* \"#utility.yul\":10812:10878   */\n      0xffffffffffffffffffffffffffffffffffffffffffffffffffffffffffffffff\n        /* \"#utility.yul\":10801:10810   */\n      dup3\n        /* \"#utility.yul\":10782:10879   */\n      tag_138\n      jump\t// in\n    tag_276:\n        /* \"#utility.yul\":10900:10939   */\n      tag_277\n        /* \"#utility.yul\":10930:10938   */\n      dup7\n        /* \"#utility.yul\":10919:10928   */\n      dup4\n        /* \"#utility.yul\":10900:10939   */\n      tag_138\n      jump\t// in\n    tag_277:\n        /* \"#utility.yul\":10888:10939   */\n      swap6\n      pop\n        /* \"#utility.yul\":10972:10976   */\n      dup1\n        /* \"#utility.yul\":10968:10977   */\n      not\n        /* \"#utility.yul\":10961:10966   */\n      dup5\n        /* \"#utility.yul\":10957:10978   */\n      and\n        /* \"#utility.yul\":10948:10978   */\n      swap4\n      pop\n        /* \"#utility.yul\":11021:11025   */\n      dup1\n        /* \"#utility.yul\":11011:11019   */\n      dup7\n        /* \"#utility.yul\":11007:11026   */\n      and\n        /* \"#utility.yul\":11000:11005   */\n      dup5\n        /* \"#utility.yul\":10997:11027   */\n      or\n        /* \"#utility.yul\":10987:11027   */\n      swap3\n      pop\n        /* \"#utility.yul\":10716:11033   */\n      pop\n      pop\n        /* \"#utility.yul\":10640:11033   */\n      swap4\n      swap3\n      pop\n      pop\n      pop\n      jump\t// out\n        /* \"#utility.yul\":11039:11099   */\n    tag_140:\n        /* \"#utility.yul\":11067:11070   */\n      0x00\n        /* \"#utility.yul\":11088:11093   */\n      dup2\n        /* \"#utility.yul\":11081:11093   */\n      swap1\n      pop\n        /* \"#utility.yul\":11039:11099   */\n      swap2\n      swap1\n      pop\n      jump\t// out\n        /* \"#utility.yul\":11105:11247   */\n    tag_141:\n        /* \"#utility.yul\":11155:11164   */\n      0x00\n        /* \"#utility.yul\":11188:11241   */\n      tag_280\n        /* \"#utility.yul\":11206:11240   */\n      tag_281\n        /* \"#utility.yul\":11215:11239   */\n      tag_282\n        /* \"#utility.yul\":11233:11238   */\n      dup5\n        /* \"#utility.yul\":11215:11239   */\n      tag_104\n      jump\t// in\n    tag_282:\n        /* \"#utility.yul\":11206:11240   */\n      tag_140\n      jump\t// in\n    tag_281:\n        /* \"#utility.yul\":11188:11241   */\n      tag_104\n      jump\t// in\n    tag_280:\n        /* \"#utility.yul\":11175:11241   */\n      swap1\n      pop\n        /* \"#utility.yul\":11105:11247   */\n      swap2\n      swap1\n      pop\n      jump\t// out\n        /* \"#utility.yul\":11253:11328   */\n    tag_142:\n        /* \"#utility.yul\":11296:11299   */\n      0x00\n        /* \"#utility.yul\":11317:11322   */\n      dup2\n        /* \"#utility.yul\":11310:11322   */\n      swap1\n      pop\n        /* \"#utility.yul\":11253:11328   */\n      swap2\n      swap1\n      pop\n      jump\t// out\n        /* \"#utility.yul\":11334:11603   */\n    tag_143:\n        /* \"#utility.yul\":11444:11483   */\n      tag_285\n        /* \"#utility.yul\":11475:11482   */\n      dup4\n        /* \"#utility.yul\":11444:11483   */\n      tag_141\n      jump\t// in\n    tag_285:\n        /* \"#utility.yul\":11505:11596   */\n      tag_286\n        /* \"#utility.yul\":11554:11595   */\n      tag_287\n        /* \"#utility.yul\":11578:11594   */\n      dup3\n        /* \"#utility.yul\":11554:11595   */\n      tag_142\n      jump\t// in\n    tag_287:\n        /* \"#utility.yul\":11546:11552   */\n      dup5\n        /* \"#utility.yul\":11539:11543   */\n      dup5\n        /* \"#utility.yul\":11533:11544   */\n      sload\n        /* \"#utility.yul\":11505:11596   */\n      tag_139\n      jump\t// in\n    tag_286:\n        /* \"#utility.yul\":11499:11503   */\n      dup3\n        /* \"#utility.yul\":11492:11597   */\n      sstore\n        /* \"#utility.yul\":11410:11603   */\n      pop\n        /* \"#utility.yul\":11334:11603   */\n      pop\n      pop\n      pop\n      jump\t// out\n        /* \"#utility.yul\":11609:11682   */\n    tag_144:\n        /* \"#utility.yul\":11654:11657   */\n      0x00\n        /* \"#utility.yul\":11609:11682   */\n      swap1\n      jump\t// out\n        /* \"#utility.yul\":11688:11877   */\n    tag_145:\n        /* \"#utility.yul\":11765:11797   */\n      tag_290\n      tag_144\n      jump\t// in\n    tag_290:\n        /* \"#utility.yul\":11806:11871   */\n      tag_291\n        /* \"#utility.yul\":11864:11870   */\n      dup2\n        /* \"#utility.yul\":11856:11862   */\n      dup5\n        /* \"#utility.yul\":11850:11854   */\n      dup5\n        /* \"#utility.yul\":11806:11871   */\n      tag_143\n      jump\t// in\n    tag_291:\n        /* \"#utility.yul\":11741:11877   */\n      pop\n        /* \"#utility.yul\":11688:11877   */\n      pop\n      pop\n      jump\t// out\n        /* \"#utility.yul\":11883:12069   */\n    tag_146:\n        /* \"#utility.yul\":11943:12063   */\n    tag_293:\n        /* \"#utility.yul\":11960:11963   */\n      dup2\n        /* \"#utility.yul\":11953:11958   */\n      dup2\n        /* \"#utility.yul\":11950:11964   */\n      lt\n        /* \"#utility.yul\":11943:12063   */\n      iszero\n      tag_295\n      jumpi\n        /* \"#utility.yul\":12014:12053   */\n      tag_296\n        /* \"#utility.yul\":12051:12052   */\n      0x00\n        /* \"#utility.yul\":12044:12049   */\n      dup3\n        /* \"#utility.yul\":12014:12053   */\n      tag_145\n      jump\t// in\n    tag_296:\n        /* \"#utility.yul\":11987:11988   */\n      0x01\n        /* \"#utility.yul\":11980:11985   */\n      dup2\n        /* \"#utility.yul\":11976:11989   */\n      add\n        /* \"#utility.yul\":11967:11989   */\n      swap1\n      pop\n        /* \"#utility.yul\":11943:12063   */\n      jump(tag_293)\n    tag_295:\n        /* \"#utility.yul\":11883:12069   */\n      pop\n      pop\n      jump\t// out\n        /* \"#utility.yul\":12075:12618   */\n    tag_147:\n        /* \"#utility.yul\":12176:12178   */\n      0x1f\n        /* \"#utility.yul\":12171:12174   */\n      dup3\n        /* \"#utility.yul\":12168:12179   */\n      gt\n        /* \"#utility.yul\":12165:12611   */\n      iszero\n      tag_298\n      jumpi\n        /* \"#utility.yul\":12210:12248   */\n      tag_299\n        /* \"#utility.yul\":12242:12247   */\n      dup2\n        /* \"#utility.yul\":12210:12248   */\n      tag_136\n      jump\t// in\n    tag_299:\n        /* \"#utility.yul\":12294:12323   */\n      tag_300\n        /* \"#utility.yul\":12312:12322   */\n      dup5\n        /* \"#utility.yul\":12294:12323   */\n      tag_137\n      jump\t// in\n    tag_300:\n        /* \"#utility.yul\":12284:12292   */\n      dup2\n        /* \"#utility.yul\":12280:12324   */\n      add\n        /* \"#utility.yul\":12477:12479   */\n      0x20\n        /* \"#utility.yul\":12465:12475   */\n      dup6\n        /* \"#utility.yul\":12462:12480   */\n      lt\n        /* \"#utility.yul\":12459:12508   */\n      iszero\n      tag_301\n      jumpi\n        /* \"#utility.yul\":12498:12506   */\n      dup2\n        /* \"#utility.yul\":12483:12506   */\n      swap1\n      pop\n        /* \"#utility.yul\":12459:12508   */\n    tag_301:\n        /* \"#utility.yul\":12521:12601   */\n      tag_302\n        /* \"#utility.yul\":12577:12599   */\n      tag_303\n        /* \"#utility.yul\":12595:12598   */\n      dup6\n        /* \"#utility.yul\":12577:12599   */\n      tag_137\n      jump\t// in\n    tag_303:\n        /* \"#utility.yul\":12567:12575   */\n      dup4\n        /* \"#utility.yul\":12563:12600   */\n      add\n        /* \"#utility.yul\":12550:12561   */\n      dup3\n        /* \"#utility.yul\":12521:12601   */\n      tag_146\n      jump\t// in\n    tag_302:\n        /* \"#utility.yul\":12180:12611   */\n      pop\n      pop\n        /* \"#utility.yul\":12165:12611   */\n    tag_298:\n        /* \"#utility.yul\":12075:12618   */\n      pop\n      pop\n      pop\n      jump\t// out\n        /* \"#utility.yul\":12624:12741   */\n    tag_148:\n        /* \"#utility.yul\":12678:12686   */\n      0x00\n        /* \"#utility.yul\":12728:12733   */\n      dup3\n        /* \"#utility.yul\":12722:12726   */\n      dup3\n        /* \"#utility.yul\":12718:12734   */\n      shr\n        /* \"#utility.yul\":12697:12734   */\n      swap1\n      pop\n        /* \"#utility.yul\":12624:12741   */\n      swap3\n      swap2\n      pop\n      pop\n      jump\t// out\n        /* \"#utility.yul\":12747:12916   */\n    tag_149:\n        /* \"#utility.yul\":12791:12797   */\n      0x00\n        /* \"#utility.yul\":12824:12875   */\n      tag_306\n        /* \"#utility.yul\":12872:12873   */\n      0x00\n        /* \"#utility.yul\":12868:12874   */\n      not\n        /* \"#utility.yul\":12860:12865   */\n      dup5\n        /* \"#utility.yul\":12857:12858   */\n      0x08\n        /* \"#utility.yul\":12853:12866   */\n      mul\n        /* \"#utility.yul\":12824:12875   */\n      tag_148\n      jump\t// in\n    tag_306:\n        /* \"#utility.yul\":12820:12876   */\n      not\n        /* \"#utility.yul\":12905:12909   */\n      dup1\n        /* \"#utility.yul\":12899:12903   */\n      dup4\n        /* \"#utility.yul\":12895:12910   */\n      and\n        /* \"#utility.yul\":12885:12910   */\n      swap2\n      pop\n        /* \"#utility.yul\":12798:12916   */\n      pop\n        /* \"#utility.yul\":12747:12916   */\n      swap3\n      swap2\n      pop\n      pop\n      jump\t// out\n        /* \"#utility.yul\":12921:13216   */\n    tag_150:\n        /* \"#utility.yul\":12997:13001   */\n      0x00\n        /* \"#utility.yul\":13143:13172   */\n      tag_308\n        /* \"#utility.yul\":13168:13171   */\n      dup4\n        /* \"#utility.yul\":13162:13166   */\n      dup4\n        /* \"#utility.yul\":13143:13172   */\n      tag_149\n      jump\t// in\n    tag_308:\n        /* \"#utility.yul\":13135:13172   */\n      swap2\n      pop\n        /* \"#utility.yul\":13205:13208   */\n      dup3\n        /* \"#utility.yul\":13202:13203   */\n      0x02\n        /* \"#utility.yul\":13198:13209   */\n      mul\n        /* \"#utility.yul\":13192:13196   */\n      dup3\n        /* \"#utility.yul\":13189:13210   */\n      or\n        /* \"#utility.yul\":13181:13210   */\n      swap1\n      pop\n        /* \"#utility.yul\":12921:13216   */\n      swap3\n      swap2\n      pop\n      pop\n      jump\t// out\n        /* \"#utility.yul\":13221:14616   */\n    tag_86:\n        /* \"#utility.yul\":13338:13375   */\n      tag_310\n        /* \"#utility.yul\":13371:13374   */\n      dup3\n        /* \"#utility.yul\":13338:13375   */\n      tag_128\n      jump\t// in\n    tag_310:\n        /* \"#utility.yul\":13440:13458   */\n      0xffffffffffffffff\n        /* \"#utility.yul\":13432:13438   */\n      dup2\n        /* \"#utility.yul\":13429:13459   */\n      gt\n        /* \"#utility.yul\":13426:13482   */\n      iszero\n      tag_311\n      jumpi\n        /* \"#utility.yul\":13462:13480   */\n      tag_312\n      tag_118\n      jump\t// in\n    tag_312:\n        /* \"#utility.yul\":13426:13482   */\n    tag_311:\n        /* \"#utility.yul\":13506:13544   */\n      tag_313\n        /* \"#utility.yul\":13538:13542   */\n      dup3\n        /* \"#utility.yul\":13532:13543   */\n      sload\n        /* \"#utility.yul\":13506:13544   */\n      tag_88\n      jump\t// in\n    tag_313:\n        /* \"#utility.yul\":13591:13658   */\n      tag_314\n        /* \"#utility.yul\":13651:13657   */\n      dup3\n        /* \"#utility.yul\":13643:13649   */\n      dup3\n        /* \"#utility.yul\":13637:13641   */\n      dup6\n        /* \"#utility.yul\":13591:13658   */\n      tag_147\n      jump\t// in\n    tag_314:\n        /* \"#utility.yul\":13685:13686   */\n      0x00\n        /* \"#utility.yul\":13709:13713   */\n      0x20\n        /* \"#utility.yul\":13696:13713   */\n      swap1\n      pop\n        /* \"#utility.yul\":13741:13743   */\n      0x1f\n        /* \"#utility.yul\":13733:13739   */\n      dup4\n        /* \"#utility.yul\":13730:13744   */\n      gt\n        /* \"#utility.yul\":13758:13759   */\n      0x01\n        /* \"#utility.yul\":13753:14371   */\n      dup2\n      eq\n      tag_316\n      jumpi\n        /* \"#utility.yul\":14415:14416   */\n      0x00\n        /* \"#utility.yul\":14432:14438   */\n      dup5\n        /* \"#utility.yul\":14429:14506   */\n      iszero\n      tag_317\n      jumpi\n        /* \"#utility.yul\":14481:14490   */\n      dup3\n        /* \"#utility.yul\":14476:14479   */\n      dup8\n        /* \"#utility.yul\":14472:14491   */\n      add\n        /* \"#utility.yul\":14466:14492   */\n      mload\n        /* \"#utility.yul\":14457:14492   */\n      swap1\n      pop\n        /* \"#utility.yul\":14429:14506   */\n    tag_317:\n        /* \"#utility.yul\":14532:14599   */\n      tag_318\n        /* \"#utility.yul\":14592:14598   */\n      dup6\n        /* \"#utility.yul\":14585:14590   */\n      dup3\n        /* \"#utility.yul\":14532:14599   */\n      tag_150\n      jump\t// in\n    tag_318:\n        /* \"#utility.yul\":14526:14530   */\n      dup7\n        /* \"#utility.yul\":14519:14600   */\n      sstore\n        /* \"#utility.yul\":14388:14610   */\n      pop\n        /* \"#utility.yul\":13723:14610   */\n      jump(tag_315)\n        /* \"#utility.yul\":13753:14371   */\n    tag_316:\n        /* \"#utility.yul\":13805:13809   */\n      0x1f\n        /* \"#utility.yul\":13801:13810   */\n      not\n        /* \"#utility.yul\":13793:13799   */\n      dup5\n        /* \"#utility.yul\":13789:13811   */\n      and\n        /* \"#utility.yul\":13839:13876   */\n      tag_319\n        /* \"#utility.yul\":13871:13875   */\n      dup7\n        /* \"#utility.yul\":13839:13876   */\n      tag_136\n      jump\t// in\n    tag_319:\n        /* \"#utility.yul\":13898:13899   */\n      0x00\n        /* \"#utility.yul\":13912:14120   */\n    tag_320:\n        /* \"#utility.yul\":13926:13933   */\n      dup3\n        /* \"#utility.yul\":13923:13924   */\n      dup2\n        /* \"#utility.yul\":13920:13934   */\n      lt\n        /* \"#utility.yul\":13912:14120   */\n      iszero\n      tag_322\n      jumpi\n        /* \"#utility.yul\":14005:14014   */\n      dup5\n        /* \"#utility.yul\":14000:14003   */\n      dup10\n        /* \"#utility.yul\":13996:14015   */\n      add\n        /* \"#utility.yul\":13990:14016   */\n      mload\n        /* \"#utility.yul\":13982:13988   */\n      dup3\n        /* \"#utility.yul\":13975:14017   */\n      sstore\n        /* \"#utility.yul\":14056:14057   */\n      0x01\n        /* \"#utility.yul\":14048:14054   */\n      dup3\n        /* \"#utility.yul\":14044:14058   */\n      add\n        /* \"#utility.yul\":14034:14058   */\n      swap2\n      pop\n        /* \"#utility.yul\":14103:14105   */\n      0x20\n        /* \"#utility.yul\":14092:14101   */\n      dup6\n        /* \"#utility.yul\":14088:14106   */\n      add\n        /* \"#utility.yul\":14075:14106   */\n      swap5\n      pop\n        /* \"#utility.yul\":13949:13953   */\n      0x20\n        /* \"#utility.yul\":13946:13947   */\n      dup2\n        /* \"#utility.yul\":13942:13954   */\n      add\n        /* \"#utility.yul\":13937:13954   */\n      swap1\n      pop\n        /* \"#utility.yul\":13912:14120   */\n      jump(tag_320)\n    tag_322:\n        /* \"#utility.yul\":14148:14154   */\n      dup7\n        /* \"#utility.yul\":14139:14146   */\n      dup4\n        /* \"#utility.yul\":14136:14155   */\n      lt\n        /* \"#utility.yul\":14133:14312   */\n      iszero\n      tag_323\n      jumpi\n        /* \"#utility.yul\":14206:14215   */\n      dup5\n        /* \"#utility.yul\":14201:14204   */\n      dup10\n        /* \"#utility.yul\":14197:14216   */\n      add\n        /* \"#utility.yul\":14191:14217   */\n      mload\n        /* \"#utility.yul\":14249:14297   */\n      tag_324\n        /* \"#utility.yul\":14291:14295   */\n      0x1f\n        /* \"#utility.yul\":14283:14289   */\n      dup10\n        /* \"#utility.yul\":14279:14296   */\n      and\n        /* \"#utility.yul\":14268:14277   */\n      dup3\n        /* \"#utility.yul\":14249:14297   */\n      tag_149\n      jump\t// in\n    tag_324:\n        /* \"#utility.yul\":14241:14247   */\n      dup4\n        /* \"#utility.yul\":14234:14298   */\n      sstore\n        /* \"#utility.yul\":14156:14312   */\n      pop\n        /* \"#utility.yul\":14133:14312   */\n    tag_323:\n        /* \"#utility.yul\":14358:14359   */\n      0x01\n        /* \"#utility.yul\":14354:14355   */\n      0x02\n        /* \"#utility.yul\":14346:14352   */\n      dup9\n        /* \"#utility.yul\":14342:14356   */\n      mul\n        /* \"#utility.yul\":14338:14360   */\n      add\n        /* \"#utility.yul\":14332:14336   */\n      dup9\n        /* \"#utility.yul\":14325:14361   */\n      sstore\n        /* \"#utility.yul\":13760:14371   */\n      pop\n      pop\n      pop\n        /* \"#utility.yul\":13723:14610   */\n    tag_315:\n      pop\n        /* \"#utility.yul\":13313:14616   */\n      pop\n      pop\n      pop\n        /* \"#utility.yul\":13221:14616   */\n      pop\n      pop\n      jump\t// out\n\n    auxdata: 0xa2646970667358221220c7f6581bee5f93982294426825bf3191c45429735f0ed2c1c65b3db1808b9d3b64736f6c63430008100033\n}\n",
    "bytecode": {
      "linkReferences": {},
      "object": "608060405260008055604051620012a3380380620012a383398181016040528101906200002d919062000122565b80600260006101000a81548173ffffffffffffffffffffffffffffffffffffffff021916908373ffffffffffffffffffffffffffffffffffffffff16021790555081600381905550505062000169565b600080fd5b6000819050919050565b620000978162000082565b8114620000a357600080fd5b50565b600081519050620000b7816200008c565b92915050565b600073ffffffffffffffffffffffffffffffffffffffff82169050919050565b6000620000ea82620000bd565b9050919050565b620000fc81620000dd565b81146200010857600080fd5b50565b6000815190506200011c81620000f1565b92915050565b600080604083850312156200013c576200013b6200007d565b5b60006200014c85828601620000a6565b92505060206200015f858286016200010b565b9150509250929050565b61112a80620001796000396000f3fe6080604052600436106100a75760003560e01c80638a9cfd55116100645780638a9cfd55146101c2578063937e09b1146101de5780639fb42b1f14610209578063c6612dc714610234578063d7bb99ba14610275578063d7d1bbdb1461027f576100a7565b806303441006146100ac5780630a144391146100d55780633410452a146101125780634051ddac1461013d578063481c6a751461016c57806382fde09314610197575b600080fd5b3480156100b857600080fd5b506100d360048036038101906100ce91906108cf565b61029b565b005b3480156100e157600080fd5b506100fc60048036038101906100f7919061095a565b6103d6565b60405161010991906109a2565b60405180910390f35b34801561011e57600080fd5b506101276103f6565b60405161013491906109cc565b60405180910390f35b34801561014957600080fd5b506101526103ff565b6040516101639594939291906109f6565b60405180910390f35b34801561017857600080fd5b50610181610445565b60405161018e9190610a49565b60405180910390f35b3480156101a357600080fd5b506101ac61046b565b6040516101b991906109cc565b60405180910390f35b6101dc60048036038101906101d79190610be8565b610471565b005b3480156101ea57600080fd5b506101f3610582565b60405161020091906109cc565b60405180910390f35b34801561021557600080fd5b5061021e610588565b60405161022b91906109cc565b60405180910390f35b34801561024057600080fd5b5061025b600480360381019061025691906108cf565b61058e565b60405161026c959493929190610ce5565b60405180910390f35b61027d610679565b005b610299600480360381019061029491906108cf565b610747565b005b600260009054906101000a900473ffffffffffffffffffffffffffffffffffffffff1673ffffffffffffffffffffffffffffffffffffffff163373ffffffffffffffffffffffffffffffffffffffff16146102f557600080fd5b6000600160008381526020019081526020016000209050600260055461031b9190610d9d565b81600301541161032a57600080fd5b8060020160149054906101000a900460ff161561034657600080fd5b8060020160009054906101000a900473ffffffffffffffffffffffffffffffffffffffff1673ffffffffffffffffffffffffffffffffffffffff166108fc82600101549081150290604051600060405180830381858888f193505050501580156103b4573d6000803e3d6000fd5b5060018160020160146101000a81548160ff0219169083151502179055505050565b60046020528060005260406000206000915054906101000a900460ff1681565b60008054905090565b600080600080600060035447600054600554600260009054906101000a900473ffffffffffffffffffffffffffffffffffffffff16945094509450945094509091929394565b600260009054906101000a900473ffffffffffffffffffffffffffffffffffffffff1681565b60055481565b600260009054906101000a900473ffffffffffffffffffffffffffffffffffffffff1673ffffffffffffffffffffffffffffffffffffffff163373ffffffffffffffffffffffffffffffffffffffff16146104cb57600080fd5b6000600160008060008154809291906104e390610dce565b9190505581526020019081526020016000209050838160000190816105089190611022565b50828160010181905550818160020160006101000a81548173ffffffffffffffffffffffffffffffffffffffff021916908373ffffffffffffffffffffffffffffffffffffffff16021790555060008160020160146101000a81548160ff0219169083151502179055506000816003018190555050505050565b60035481565b60005481565b60016020528060005260406000206000915090508060000180546105b190610e45565b80601f01602080910402602001604051908101604052809291908181526020018280546105dd90610e45565b801561062a5780601f106105ff5761010080835404028352916020019161062a565b820191906000526020600020905b81548152906001019060200180831161060d57829003601f168201915b5050505050908060010154908060020160009054906101000a900473ffffffffffffffffffffffffffffffffffffffff16908060020160149054906101000a900460ff16908060030154905085565b600354341061074557600460003373ffffffffffffffffffffffffffffffffffffffff1673ffffffffffffffffffffffffffffffffffffffff16815260200190815260200160002060009054906101000a900460ff166106ec57600560008154809291906106e690610dce565b91905055505b6001600460003373ffffffffffffffffffffffffffffffffffffffff1673ffffffffffffffffffffffffffffffffffffffff16815260200190815260200160002060006101000a81548160ff0219169083151502179055505b565b6000600160008381526020019081526020016000209050600460003373ffffffffffffffffffffffffffffffffffffffff1673ffffffffffffffffffffffffffffffffffffffff16815260200190815260200160002060009054906101000a900460ff166107b457600080fd5b8060040160003373ffffffffffffffffffffffffffffffffffffffff1673ffffffffffffffffffffffffffffffffffffffff16815260200190815260200160002060009054906101000a900460ff161561080d57600080fd5b60018160040160003373ffffffffffffffffffffffffffffffffffffffff1673ffffffffffffffffffffffffffffffffffffffff16815260200190815260200160002060006101000a81548160ff02191690831515021790555080600301600081548092919061087c90610dce565b91905055505050565b6000604051905090565b600080fd5b600080fd5b6000819050919050565b6108ac81610899565b81146108b757600080fd5b50565b6000813590506108c9816108a3565b92915050565b6000602082840312156108e5576108e461088f565b5b60006108f3848285016108ba565b91505092915050565b600073ffffffffffffffffffffffffffffffffffffffff82169050919050565b6000610927826108fc565b9050919050565b6109378161091c565b811461094257600080fd5b50565b6000813590506109548161092e565b92915050565b6000602082840312156109705761096f61088f565b5b600061097e84828501610945565b91505092915050565b60008115159050919050565b61099c81610987565b82525050565b60006020820190506109b76000830184610993565b92915050565b6109c681610899565b82525050565b60006020820190506109e160008301846109bd565b92915050565b6109f08161091c565b82525050565b600060a082019050610a0b60008301886109bd565b610a1860208301876109bd565b610a2560408301866109bd565b610a3260608301856109bd565b610a3f60808301846109e7565b9695505050505050565b6000602082019050610a5e60008301846109e7565b92915050565b600080fd5b600080fd5b6000601f19601f8301169050919050565b7f4e487b7100000000000000000000000000000000000000000000000000000000600052604160045260246000fd5b610ab782610a6e565b810181811067ffffffffffffffff82111715610ad657610ad5610a7f565b5b80604052505050565b6000610ae9610885565b9050610af58282610aae565b919050565b600067ffffffffffffffff821115610b1557610b14610a7f565b5b610b1e82610a6e565b9050602081019050919050565b82818337600083830152505050565b6000610b4d610b4884610afa565b610adf565b905082815260208101848484011115610b6957610b68610a69565b5b610b74848285610b2b565b509392505050565b600082601f830112610b9157610b90610a64565b5b8135610ba1848260208601610b3a565b91505092915050565b6000610bb5826108fc565b9050919050565b610bc581610baa565b8114610bd057600080fd5b50565b600081359050610be281610bbc565b92915050565b600080600060608486031215610c0157610c0061088f565b5b600084013567ffffffffffffffff811115610c1f57610c1e610894565b5b610c2b86828701610b7c565b9350506020610c3c868287016108ba565b9250506040610c4d86828701610bd3565b9150509250925092565b600081519050919050565b600082825260208201905092915050565b60005b83811015610c91578082015181840152602081019050610c76565b60008484015250505050565b6000610ca882610c57565b610cb28185610c62565b9350610cc2818560208601610c73565b610ccb81610a6e565b840191505092915050565b610cdf81610baa565b82525050565b600060a0820190508181036000830152610cff8188610c9d565b9050610d0e60208301876109bd565b610d1b6040830186610cd6565b610d286060830185610993565b610d3560808301846109bd565b9695505050505050565b7f4e487b7100000000000000000000000000000000000000000000000000000000600052601260045260246000fd5b7f4e487b7100000000000000000000000000000000000000000000000000000000600052601160045260246000fd5b6000610da882610899565b9150610db383610899565b925082610dc357610dc2610d3f565b5b828204905092915050565b6000610dd982610899565b91507fffffffffffffffffffffffffffffffffffffffffffffffffffffffffffffffff8203610e0b57610e0a610d6e565b5b600182019050919050565b7f4e487b7100000000000000000000000000000000000000000000000000000000600052602260045260246000fd5b60006002820490506001821680610e5d57607f821691505b602082108103610e7057610e6f610e16565b5b50919050565b60008190508160005260206000209050919050565b60006020601f8301049050919050565b600082821b905092915050565b600060088302610ed87fffffffffffffffffffffffffffffffffffffffffffffffffffffffffffffffff82610e9b565b610ee28683610e9b565b95508019841693508086168417925050509392505050565b6000819050919050565b6000610f1f610f1a610f1584610899565b610efa565b610899565b9050919050565b6000819050919050565b610f3983610f04565b610f4d610f4582610f26565b848454610ea8565b825550505050565b600090565b610f62610f55565b610f6d818484610f30565b505050565b5b81811015610f9157610f86600082610f5a565b600181019050610f73565b5050565b601f821115610fd657610fa781610e76565b610fb084610e8b565b81016020851015610fbf578190505b610fd3610fcb85610e8b565b830182610f72565b50505b505050565b600082821c905092915050565b6000610ff960001984600802610fdb565b1980831691505092915050565b60006110128383610fe8565b9150826002028217905092915050565b61102b82610c57565b67ffffffffffffffff81111561104457611043610a7f565b5b61104e8254610e45565b611059828285610f95565b600060209050601f83116001811461108c576000841561107a578287015190505b6110848582611006565b8655506110ec565b601f19841661109a86610e76565b60005b828110156110c25784890151825560018201915060208501945060208101905061109d565b868310156110df57848901516110db601f891682610fe8565b8355505b6001600288020188555050505b50505050505056fea2646970667358221220c7f6581bee5f93982294426825bf3191c45429735f0ed2c1c65b3db1808b9d3b64736f6c63430008100033",
      "opcodes": "PUSH1 0x80 PUSH1 0x40 MSTORE PUSH1 0x0 DUP1 SSTORE PUSH1 0x40 MLOAD PUSH3 0x12A3 CODESIZE SUB DUP1 PUSH3 0x12A3 DUP4 CODECOPY DUP2 DUP2 ADD PUSH1 0x40 MSTORE DUP2 ADD SWAP1 PUSH3 0x2D SWAP2 SWAP1 PUSH3 0x122 JUMP JUMPDEST DUP1 PUSH1 0x2 PUSH1 0x0 PUSH2 0x100 EXP DUP2 SLOAD DUP2 PUSH20 0xFFFFFFFFFFFFFFFFFFFFFFFFFFFFFFFFFFFFFFFF MUL NOT AND SWAP1 DUP4 PUSH20 0xFFFFFFFFFFFFFFFFFFFFFFFFFFFFFFFFFFFFFFFF AND MUL OR SWAP1 SSTORE POP DUP2 PUSH1 0x3 DUP2 SWAP1 SSTORE POP POP POP PUSH3 0x169 JUMP JUMPDEST PUSH1 0x0 DUP1 REVERT JUMPDEST PUSH1 0x0 DUP2 SWAP1 POP SWAP2 SWAP1 POP JUMP JUMPDEST PUSH3 0x97 DUP2 PUSH3 0x82 JUMP JUMPDEST DUP2 EQ PUSH3 0xA3 JUMPI PUSH1 0x0 DUP1 REVERT JUMPDEST POP JUMP JUMPDEST PUSH1 0x0 DUP2 MLOAD SWAP1 POP PUSH3 0xB7 DUP2 PUSH3 0x8C JUMP JUMPDEST SWAP3 SWAP2 POP POP JUMP JUMPDEST PUSH1 0x0 PUSH20 0xFFFFFFFFFFFFFFFFFFFFFFFFFFFFFFFFFFFFFFFF DUP3 AND SWAP1 POP SWAP2 SWAP1 POP JUMP JUMPDEST PUSH1 0x0 PUSH3 0xEA DUP3 PUSH3 0xBD JUMP JUMPDEST SWAP1 POP SWAP2 SWAP1 POP JUMP JUMPDEST PUSH3 0xFC DUP2 PUSH3 0xDD JUMP JUMPDEST DUP2 EQ PUSH3 0x108 JUMPI PUSH1 0x0 DUP1 REVERT JUMPDEST POP JUMP JUMPDEST PUSH1 0x0 DUP2 MLOAD SWAP1 POP PUSH3 0x11C DUP2 PUSH3 0xF1 JUMP JUMPDEST SWAP3 SWAP2 POP POP JUMP JUMPDEST PUSH1 0x0 DUP1 PUSH1 0x40 DUP4 DUP6 SUB SLT ISZERO PUSH3 0x13C JUMPI PUSH3 0x13B PUSH3 0x7D JUMP JUMPDEST JUMPDEST PUSH1 0x0 PUSH3 0x14C DUP6 DUP3 DUP7 ADD PUSH3 0xA6 JUMP JUMPDEST SWAP3 POP POP PUSH1 0x20 PUSH3 0x15F DUP6 DUP3 DUP7 ADD PUSH3 0x10B JUMP JUMPDEST SWAP2 POP POP SWAP3 POP SWAP3 SWAP1 POP JUMP JUMPDEST PUSH2 0x112A DUP1 PUSH3 0x179 PUSH1 0x0 CODECOPY PUSH1 0x0 RETURN INVALID PUSH1 0x80 PUSH1 0x40 MSTORE PUSH1 0x4 CALLDATASIZE LT PUSH2 0xA7 JUMPI PUSH1 0x0 CALLDATALOAD PUSH1 0xE0 SHR DUP1 PUSH4 0x8A9CFD55 GT PUSH2 0x64 JUMPI DUP1 PUSH4 0x8A9CFD55 EQ PUSH2 0x1C2 JUMPI DUP1 PUSH4 0x937E09B1 EQ PUSH2 0x1DE JUMPI DUP1 PUSH4 0x9FB42B1F EQ PUSH2 0x209 JUMPI DUP1 PUSH4 0xC6612DC7 EQ PUSH2 0x234 JUMPI DUP1 PUSH4 0xD7BB99BA EQ PUSH2 0x275 JUMPI DUP1 PUSH4 0xD7D1BBDB EQ PUSH2 0x27F JUMPI PUSH2 0xA7 JUMP JUMPDEST DUP1 PUSH4 0x3441006 EQ PUSH2 0xAC JUMPI DUP1 PUSH4 0xA144391 EQ PUSH2 0xD5 JUMPI DUP1 PUSH4 0x3410452A EQ PUSH2 0x112 JUMPI DUP1 PUSH4 0x4051DDAC EQ PUSH2 0x13D JUMPI DUP1 PUSH4 0x481C6A75 EQ PUSH2 0x16C JUMPI DUP1 PUSH4 0x82FDE093 EQ PUSH2 0x197 JUMPI JUMPDEST PUSH1 0x0 DUP1 REVERT JUMPDEST CALLVALUE DUP1 ISZERO PUSH2 0xB8 JUMPI PUSH1 0x0 DUP1 REVERT JUMPDEST POP PUSH2 0xD3 PUSH1 0x4 DUP1 CALLDATASIZE SUB DUP2 ADD SWAP1 PUSH2 0xCE SWAP2 SWAP1 PUSH2 0x8CF JUMP JUMPDEST PUSH2 0x29B JUMP JUMPDEST STOP JUMPDEST CALLVALUE DUP1 ISZERO PUSH2 0xE1 JUMPI PUSH1 0x0 DUP1 REVERT JUMPDEST POP PUSH2 0xFC PUSH1 0x4 DUP1 CALLDATASIZE SUB DUP2 ADD SWAP1 PUSH2 0xF7 SWAP2 SWAP1 PUSH2 0x95A JUMP JUMPDEST PUSH2 0x3D6 JUMP JUMPDEST PUSH1 0x40 MLOAD PUSH2 0x109 SWAP2 SWAP1 PUSH2 0x9A2 JUMP JUMPDEST PUSH1 0x40 MLOAD DUP1 SWAP2 SUB SWAP1 RETURN JUMPDEST CALLVALUE DUP1 ISZERO PUSH2 0x11E JUMPI PUSH1 0x0 DUP1 REVERT JUMPDEST POP PUSH2 0x127 PUSH2 0x3F6 JUMP JUMPDEST PUSH1 0x40 MLOAD PUSH2 0x134 SWAP2 SWAP1 PUSH2 0x9CC JUMP JUMPDEST PUSH1 0x40 MLOAD DUP1 SWAP2 SUB SWAP1 RETURN JUMPDEST CALLVALUE DUP1 ISZERO PUSH2 0x149 JUMPI PUSH1 0x0 DUP1 REVERT JUMPDEST POP PUSH2 0x152 PUSH2 0x3FF JUMP JUMPDEST PUSH1 0x40 MLOAD PUSH2 0x163 SWAP6 SWAP5 SWAP4 SWAP3 SWAP2 SWAP1 PUSH2 0x9F6 JUMP JUMPDEST PUSH1 0x40 MLOAD DUP1 SWAP2 SUB SWAP1 RETURN JUMPDEST CALLVALUE DUP1 ISZERO PUSH2 0x178 JUMPI PUSH1 0x0 DUP1 REVERT JUMPDEST POP PUSH2 0x181 PUSH2 0x445 JUMP JUMPDEST PUSH1 0x40 MLOAD PUSH2 0x18E SWAP2 SWAP1 PUSH2 0xA49 JUMP JUMPDEST PUSH1 0x40 MLOAD DUP1 SWAP2 SUB SWAP1 RETURN JUMPDEST CALLVALUE DUP1 ISZERO PUSH2 0x1A3 JUMPI PUSH1 0x0 DUP1 REVERT JUMPDEST POP PUSH2 0x1AC PUSH2 0x46B JUMP JUMPDEST PUSH1 0x40 MLOAD PUSH2 0x1B9 SWAP2 SWAP1 PUSH2 0x9CC JUMP JUMPDEST PUSH1 0x40 MLOAD DUP1 SWAP2 SUB SWAP1 RETURN JUMPDEST PUSH2 0x1DC PUSH1 0x4 DUP1 CALLDATASIZE SUB DUP2 ADD SWAP1 PUSH2 0x1D7 SWAP2 SWAP1 PUSH2 0xBE8 JUMP JUMPDEST PUSH2 0x471 JUMP JUMPDEST STOP JUMPDEST CALLVALUE DUP1 ISZERO PUSH2 0x1EA JUMPI PUSH1 0x0 DUP1 REVERT JUMPDEST POP PUSH2 0x1F3 PUSH2 0x582 JUMP JUMPDEST PUSH1 0x40 MLOAD PUSH2 0x200 SWAP2 SWAP1 PUSH2 0x9CC JUMP JUMPDEST PUSH1 0x40 MLOAD DUP1 SWAP2 SUB SWAP1 RETURN JUMPDEST CALLVALUE DUP1 ISZERO PUSH2 0x215 JUMPI PUSH1 0x0 DUP1 REVERT JUMPDEST POP PUSH2 0x21E PUSH2 0x588 JUMP JUMPDEST PUSH1 0x40 MLOAD PUSH2 0x22B SWAP2 SWAP1 PUSH2 0x9CC JUMP JUMPDEST PUSH1 0x40 MLOAD DUP1 SWAP2 SUB SWAP1 RETURN JUMPDEST CALLVALUE DUP1 ISZERO PUSH2 0x240 JUMPI PUSH1 0x0 DUP1 REVERT JUMPDEST POP PUSH2 0x25B PUSH1 0x4 DUP1 CALLDATASIZE SUB DUP2 ADD SWAP1 PUSH2 0x256 SWAP2 SWAP1 PUSH2 0x8CF JUMP JUMPDEST PUSH2 0x58E JUMP JUMPDEST PUSH1 0x40 MLOAD PUSH2 0x26C SWAP6 SWAP5 SWAP4 SWAP3 SWAP2 SWAP1 PUSH2 0xCE5 JUMP JUMPDEST PUSH1 0x40 MLOAD DUP1 SWAP2 SUB SWAP1 RETURN JUMPDEST PUSH2 0x27D PUSH2 0x679 JUMP JUMPDEST STOP JUMPDEST PUSH2 0x299 PUSH1 0x4 DUP1 CALLDATASIZE SUB DUP2 ADD SWAP1 PUSH2 0x294 SWAP2 SWAP1 PUSH2 0x8CF JUMP JUMPDEST PUSH2 0x747 JUMP JUMPDEST STOP JUMPDEST PUSH1 0x2 PUSH1 0x0 SWAP1 SLOAD SWAP1 PUSH2 0x100 EXP SWAP1 DIV PUSH20 0xFFFFFFFFFFFFFFFFFFFFFFFFFFFFFFFFFFFFFFFF AND PUSH20 0xFFFFFFFFFFFFFFFFFFFFFFFFFFFFFFFFFFFFFFFF AND CALLER PUSH20 0xFFFFFFFFFFFFFFFFFFFFFFFFFFFFFFFFFFFFFFFF AND EQ PUSH2 0x2F5 JUMPI PUSH1 0x0 DUP1 REVERT JUMPDEST PUSH1 0x0 PUSH1 0x1 PUSH1 0x0 DUP4 DUP2 MSTORE PUSH1 0x20 ADD SWAP1 DUP2 MSTORE PUSH1 0x20 ADD PUSH1 0x0 KECCAK256 SWAP1 POP PUSH1 0x2 PUSH1 0x5 SLOAD PUSH2 0x31B SWAP2 SWAP1 PUSH2 0xD9D JUMP JUMPDEST DUP2 PUSH1 0x3 ADD SLOAD GT PUSH2 0x32A JUMPI PUSH1 0x0 DUP1 REVERT JUMPDEST DUP1 PUSH1 0x2 ADD PUSH1 0x14 SWAP1 SLOAD SWAP1 PUSH2 0x100 EXP SWAP1 DIV PUSH1 0xFF AND ISZERO PUSH2 0x346 JUMPI PUSH1 0x0 DUP1 REVERT JUMPDEST DUP1 PUSH1 0x2 ADD PUSH1 0x0 SWAP1 SLOAD SWAP1 PUSH2 0x100 EXP SWAP1 DIV PUSH20 0xFFFFFFFFFFFFFFFFFFFFFFFFFFFFFFFFFFFFFFFF AND PUSH20 0xFFFFFFFFFFFFFFFFFFFFFFFFFFFFFFFFFFFFFFFF AND PUSH2 0x8FC DUP3 PUSH1 0x1 ADD SLOAD SWAP1 DUP2 ISZERO MUL SWAP1 PUSH1 0x40 MLOAD PUSH1 0x0 PUSH1 0x40 MLOAD DUP1 DUP4 SUB DUP2 DUP6 DUP9 DUP9 CALL SWAP4 POP POP POP POP ISZERO DUP1 ISZERO PUSH2 0x3B4 JUMPI RETURNDATASIZE PUSH1 0x0 DUP1 RETURNDATACOPY RETURNDATASIZE PUSH1 0x0 REVERT JUMPDEST POP PUSH1 0x1 DUP2 PUSH1 0x2 ADD PUSH1 0x14 PUSH2 0x100 EXP DUP2 SLOAD DUP2 PUSH1 0xFF MUL NOT AND SWAP1 DUP4 ISZERO ISZERO MUL OR SWAP1 SSTORE POP POP POP JUMP JUMPDEST PUSH1 0x4 PUSH1 0x20 MSTORE DUP1 PUSH1 0x0 MSTORE PUSH1 0x40 PUSH1 0x0 KECCAK256 PUSH1 0x0 SWAP2 POP SLOAD SWAP1 PUSH2 0x100 EXP SWAP1 DIV PUSH1 0xFF AND DUP2 JUMP JUMPDEST PUSH1 0x0 DUP1 SLOAD SWAP1 POP SWAP1 JUMP JUMPDEST PUSH1 0x0 DUP1 PUSH1 0x0 DUP1 PUSH1 0x0 PUSH1 0x3 SLOAD SELFBALANCE PUSH1 0x0 SLOAD PUSH1 0x5 SLOAD PUSH1 0x2 PUSH1 0x0 SWAP1 SLOAD SWAP1 PUSH2 0x100 EXP SWAP1 DIV PUSH20 0xFFFFFFFFFFFFFFFFFFFFFFFFFFFFFFFFFFFFFFFF AND SWAP5 POP SWAP5 POP SWAP5 POP SWAP5 POP SWAP5 POP SWAP1 SWAP2 SWAP3 SWAP4 SWAP5 JUMP JUMPDEST PUSH1 0x2 PUSH1 0x0 SWAP1 SLOAD SWAP1 PUSH2 0x100 EXP SWAP1 DIV PUSH20 0xFFFFFFFFFFFFFFFFFFFFFFFFFFFFFFFFFFFFFFFF AND DUP2 JUMP JUMPDEST PUSH1 0x5 SLOAD DUP2 JUMP JUMPDEST PUSH1 0x2 PUSH1 0x0 SWAP1 SLOAD SWAP1 PUSH2 0x100 EXP SWAP1 DIV PUSH20 0xFFFFFFFFFFFFFFFFFFFFFFFFFFFFFFFFFFFFFFFF AND PUSH20 0xFFFFFFFFFFFFFFFFFFFFFFFFFFFFFFFFFFFFFFFF AND CALLER PUSH20 0xFFFFFFFFFFFFFFFFFFFFFFFFFFFFFFFFFFFFFFFF AND EQ PUSH2 0x4CB JUMPI PUSH1 0x0 DUP1 REVERT JUMPDEST PUSH1 0x0 PUSH1 0x1 PUSH1 0x0 DUP1 PUSH1 0x0 DUP2 SLOAD DUP1 SWAP3 SWAP2 SWAP1 PUSH2 0x4E3 SWAP1 PUSH2 0xDCE JUMP JUMPDEST SWAP2 SWAP1 POP SSTORE DUP2 MSTORE PUSH1 0x20 ADD SWAP1 DUP2 MSTORE PUSH1 0x20 ADD PUSH1 0x0 KECCAK256 SWAP1 POP DUP4 DUP2 PUSH1 0x0 ADD SWAP1 DUP2 PUSH2 0x508 SWAP2 SWAP1 PUSH2 0x1022 JUMP JUMPDEST POP DUP3 DUP2 PUSH1 0x1 ADD DUP2 SWAP1 SSTORE POP DUP2 DUP2 PUSH1 0x2 ADD PUSH1 0x0 PUSH2 0x100 EXP DUP2 SLOAD DUP2 PUSH20 0xFFFFFFFFFFFFFFFFFFFFFFFFFFFFFFFFFFFFFFFF MUL NOT AND SWAP1 DUP4 PUSH20 0xFFFFFFFFFFFFFFFFFFFFFFFFFFFFFFFFFFFFFFFF AND MUL OR SWAP1 SSTORE POP PUSH1 0x0 DUP2 PUSH1 0x2 ADD PUSH1 0x14 PUSH2 0x100 EXP DUP2 SLOAD DUP2 PUSH1 0xFF MUL NOT AND SWAP1 DUP4 ISZERO ISZERO MUL OR SWAP1 SSTORE POP PUSH1 0x0 DUP2 PUSH1 0x3 ADD DUP2 SWAP1 SSTORE POP POP POP POP POP JUMP JUMPDEST PUSH1 0x3 SLOAD DUP2 JUMP JUMPDEST PUSH1 0x0 SLOAD DUP2 JUMP JUMPDEST PUSH1 0x1 PUSH1 0x20 MSTORE DUP1 PUSH1 0x0 MSTORE PUSH1 0x40 PUSH1 0x0 KECCAK256 PUSH1 0x0 SWAP2 POP SWAP1 POP DUP1 PUSH1 0x0 ADD DUP1 SLOAD PUSH2 0x5B1 SWAP1 PUSH2 0xE45 JUMP JUMPDEST DUP1 PUSH1 0x1F ADD PUSH1 0x20 DUP1 SWAP2 DIV MUL PUSH1 0x20 ADD PUSH1 0x40 MLOAD SWAP1 DUP2 ADD PUSH1 0x40 MSTORE DUP1 SWAP3 SWAP2 SWAP1 DUP2 DUP2 MSTORE PUSH1 0x20 ADD DUP3 DUP1 SLOAD PUSH2 0x5DD SWAP1 PUSH2 0xE45 JUMP JUMPDEST DUP1 ISZERO PUSH2 0x62A JUMPI DUP1 PUSH1 0x1F LT PUSH2 0x5FF JUMPI PUSH2 0x100 DUP1 DUP4 SLOAD DIV MUL DUP4 MSTORE SWAP2 PUSH1 0x20 ADD SWAP2 PUSH2 0x62A JUMP JUMPDEST DUP3 ADD SWAP2 SWAP1 PUSH1 0x0 MSTORE PUSH1 0x20 PUSH1 0x0 KECCAK256 SWAP1 JUMPDEST DUP2 SLOAD DUP2 MSTORE SWAP1 PUSH1 0x1 ADD SWAP1 PUSH1 0x20 ADD DUP1 DUP4 GT PUSH2 0x60D JUMPI DUP3 SWAP1 SUB PUSH1 0x1F AND DUP3 ADD SWAP2 JUMPDEST POP POP POP POP POP SWAP1 DUP1 PUSH1 0x1 ADD SLOAD SWAP1 DUP1 PUSH1 0x2 ADD PUSH1 0x0 SWAP1 SLOAD SWAP1 PUSH2 0x100 EXP SWAP1 DIV PUSH20 0xFFFFFFFFFFFFFFFFFFFFFFFFFFFFFFFFFFFFFFFF AND SWAP1 DUP1 PUSH1 0x2 ADD PUSH1 0x14 SWAP1 SLOAD SWAP1 PUSH2 0x100 EXP SWAP1 DIV PUSH1 0xFF AND SWAP1 DUP1 PUSH1 0x3 ADD SLOAD SWAP1 POP DUP6 JUMP JUMPDEST PUSH1 0x3 SLOAD CALLVALUE LT PUSH2 0x745 JUMPI PUSH1 0x4 PUSH1 0x0 CALLER PUSH20 0xFFFFFFFFFFFFFFFFFFFFFFFFFFFFFFFFFFFFFFFF AND PUSH20 0xFFFFFFFFFFFFFFFFFFFFFFFFFFFFFFFFFFFFFFFF AND DUP2 MSTORE PUSH1 0x20 ADD SWAP1 DUP2 MSTORE PUSH1 0x20 ADD PUSH1 0x0 KECCAK256 PUSH1 0x0 SWAP1 SLOAD SWAP1 PUSH2 0x100 EXP SWAP1 DIV PUSH1 0xFF AND PUSH2 0x6EC JUMPI PUSH1 0x5 PUSH1 0x0 DUP2 SLOAD DUP1 SWAP3 SWAP2 SWAP1 PUSH2 0x6E6 SWAP1 PUSH2 0xDCE JUMP JUMPDEST SWAP2 SWAP1 POP SSTORE POP JUMPDEST PUSH1 0x1 PUSH1 0x4 PUSH1 0x0 CALLER PUSH20 0xFFFFFFFFFFFFFFFFFFFFFFFFFFFFFFFFFFFFFFFF AND PUSH20 0xFFFFFFFFFFFFFFFFFFFFFFFFFFFFFFFFFFFFFFFF AND DUP2 MSTORE PUSH1 0x20 ADD SWAP1 DUP2 MSTORE PUSH1 0x20 ADD PUSH1 0x0 KECCAK256 PUSH1 0x0 PUSH2 0x100 EXP DUP2 SLOAD DUP2 PUSH1 0xFF MUL NOT AND SWAP1 DUP4 ISZERO ISZERO MUL OR SWAP1 SSTORE POP JUMPDEST JUMP JUMPDEST PUSH1 0x0 PUSH1 0x1 PUSH1 0x0 DUP4 DUP2 MSTORE PUSH1 0x20 ADD SWAP1 DUP2 MSTORE PUSH1 0x20 ADD PUSH1 0x0 KECCAK256 SWAP1 POP PUSH1 0x4 PUSH1 0x0 CALLER PUSH20 0xFFFFFFFFFFFFFFFFFFFFFFFFFFFFFFFFFFFFFFFF AND PUSH20 0xFFFFFFFFFFFFFFFFFFFFFFFFFFFFFFFFFFFFFFFF AND DUP2 MSTORE PUSH1 0x20 ADD SWAP1 DUP2 MSTORE PUSH1 0x20 ADD PUSH1 0x0 KECCAK256 PUSH1 0x0 SWAP1 SLOAD SWAP1 PUSH2 0x100 EXP SWAP1 DIV PUSH1 0xFF AND PUSH2 0x7B4 JUMPI PUSH1 0x0 DUP1 REVERT JUMPDEST DUP1 PUSH1 0x4 ADD PUSH1 0x0 CALLER PUSH20 0xFFFFFFFFFFFFFFFFFFFFFFFFFFFFFFFFFFFFFFFF AND PUSH20 0xFFFFFFFFFFFFFFFFFFFFFFFFFFFFFFFFFFFFFFFF AND DUP2 MSTORE PUSH1 0x20 ADD SWAP1 DUP2 MSTORE PUSH1 0x20 ADD PUSH1 0x0 KECCAK256 PUSH1 0x0 SWAP1 SLOAD SWAP1 PUSH2 0x100 EXP SWAP1 DIV PUSH1 0xFF AND ISZERO PUSH2 0x80D JUMPI PUSH1 0x0 DUP1 REVERT JUMPDEST PUSH1 0x1 DUP2 PUSH1 0x4 ADD PUSH1 0x0 CALLER PUSH20 0xFFFFFFFFFFFFFFFFFFFFFFFFFFFFFFFFFFFFFFFF AND PUSH20 0xFFFFFFFFFFFFFFFFFFFFFFFFFFFFFFFFFFFFFFFF AND DUP2 MSTORE PUSH1 0x20 ADD SWAP1 DUP2 MSTORE PUSH1 0x20 ADD PUSH1 0x0 KECCAK256 PUSH1 0x0 PUSH2 0x100 EXP DUP2 SLOAD DUP2 PUSH1 0xFF MUL NOT AND SWAP1 DUP4 ISZERO ISZERO MUL OR SWAP1 SSTORE POP DUP1 PUSH1 0x3 ADD PUSH1 0x0 DUP2 SLOAD DUP1 SWAP3 SWAP2 SWAP1 PUSH2 0x87C SWAP1 PUSH2 0xDCE JUMP JUMPDEST SWAP2 SWAP1 POP SSTORE POP POP POP JUMP JUMPDEST PUSH1 0x0 PUSH1 0x40 MLOAD SWAP1 POP SWAP1 JUMP JUMPDEST PUSH1 0x0 DUP1 REVERT JUMPDEST PUSH1 0x0 DUP1 REVERT JUMPDEST PUSH1 0x0 DUP2 SWAP1 POP SWAP2 SWAP1 POP JUMP JUMPDEST PUSH2 0x8AC DUP2 PUSH2 0x899 JUMP JUMPDEST DUP2 EQ PUSH2 0x8B7 JUMPI PUSH1 0x0 DUP1 REVERT JUMPDEST POP JUMP JUMPDEST PUSH1 0x0 DUP2 CALLDATALOAD SWAP1 POP PUSH2 0x8C9 DUP2 PUSH2 0x8A3 JUMP JUMPDEST SWAP3 SWAP2 POP POP JUMP JUMPDEST PUSH1 0x0 PUSH1 0x20 DUP3 DUP5 SUB SLT ISZERO PUSH2 0x8E5 JUMPI PUSH2 0x8E4 PUSH2 0x88F JUMP JUMPDEST JUMPDEST PUSH1 0x0 PUSH2 0x8F3 DUP5 DUP3 DUP6 ADD PUSH2 0x8BA JUMP JUMPDEST SWAP2 POP POP SWAP3 SWAP2 POP POP JUMP JUMPDEST PUSH1 0x0 PUSH20 0xFFFFFFFFFFFFFFFFFFFFFFFFFFFFFFFFFFFFFFFF DUP3 AND SWAP1 POP SWAP2 SWAP1 POP JUMP JUMPDEST PUSH1 0x0 PUSH2 0x927 DUP3 PUSH2 0x8FC JUMP JUMPDEST SWAP1 POP SWAP2 SWAP1 POP JUMP JUMPDEST PUSH2 0x937 DUP2 PUSH2 0x91C JUMP JUMPDEST DUP2 EQ PUSH2 0x942 JUMPI PUSH1 0x0 DUP1 REVERT JUMPDEST POP JUMP JUMPDEST PUSH1 0x0 DUP2 CALLDATALOAD SWAP1 POP PUSH2 0x954 DUP2 PUSH2 0x92E JUMP JUMPDEST SWAP3 SWAP2 POP POP JUMP JUMPDEST PUSH1 0x0 PUSH1 0x20 DUP3 DUP5 SUB SLT ISZERO PUSH2 0x970 JUMPI PUSH2 0x96F PUSH2 0x88F JUMP JUMPDEST JUMPDEST PUSH1 0x0 PUSH2 0x97E DUP5 DUP3 DUP6 ADD PUSH2 0x945 JUMP JUMPDEST SWAP2 POP POP SWAP3 SWAP2 POP POP JUMP JUMPDEST PUSH1 0x0 DUP2 ISZERO ISZERO SWAP1 POP SWAP2 SWAP1 POP JUMP JUMPDEST PUSH2 0x99C DUP2 PUSH2 0x987 JUMP JUMPDEST DUP3 MSTORE POP POP JUMP JUMPDEST PUSH1 0x0 PUSH1 0x20 DUP3 ADD SWAP1 POP PUSH2 0x9B7 PUSH1 0x0 DUP4 ADD DUP5 PUSH2 0x993 JUMP JUMPDEST SWAP3 SWAP2 POP POP JUMP JUMPDEST PUSH2 0x9C6 DUP2 PUSH2 0x899 JUMP JUMPDEST DUP3 MSTORE POP POP JUMP JUMPDEST PUSH1 0x0 PUSH1 0x20 DUP3 ADD SWAP1 POP PUSH2 0x9E1 PUSH1 0x0 DUP4 ADD DUP5 PUSH2 0x9BD JUMP JUMPDEST SWAP3 SWAP2 POP POP JUMP JUMPDEST PUSH2 0x9F0 DUP2 PUSH2 0x91C JUMP JUMPDEST DUP3 MSTORE POP POP JUMP JUMPDEST PUSH1 0x0 PUSH1 0xA0 DUP3 ADD SWAP1 POP PUSH2 0xA0B PUSH1 0x0 DUP4 ADD DUP9 PUSH2 0x9BD JUMP JUMPDEST PUSH2 0xA18 PUSH1 0x20 DUP4 ADD DUP8 PUSH2 0x9BD JUMP JUMPDEST PUSH2 0xA25 PUSH1 0x40 DUP4 ADD DUP7 PUSH2 0x9BD JUMP JUMPDEST PUSH2 0xA32 PUSH1 0x60 DUP4 ADD DUP6 PUSH2 0x9BD JUMP JUMPDEST PUSH2 0xA3F PUSH1 0x80 DUP4 ADD DUP5 PUSH2 0x9E7 JUMP JUMPDEST SWAP7 SWAP6 POP POP POP POP POP POP JUMP JUMPDEST PUSH1 0x0 PUSH1 0x20 DUP3 ADD SWAP1 POP PUSH2 0xA5E PUSH1 0x0 DUP4 ADD DUP5 PUSH2 0x9E7 JUMP JUMPDEST SWAP3 SWAP2 POP POP JUMP JUMPDEST PUSH1 0x0 DUP1 REVERT JUMPDEST PUSH1 0x0 DUP1 REVERT JUMPDEST PUSH1 0x0 PUSH1 0x1F NOT PUSH1 0x1F DUP4 ADD AND SWAP1 POP SWAP2 SWAP1 POP JUMP JUMPDEST PUSH32 0x4E487B7100000000000000000000000000000000000000000000000000000000 PUSH1 0x0 MSTORE PUSH1 0x41 PUSH1 0x4 MSTORE PUSH1 0x24 PUSH1 0x0 REVERT JUMPDEST PUSH2 0xAB7 DUP3 PUSH2 0xA6E JUMP JUMPDEST DUP2 ADD DUP2 DUP2 LT PUSH8 0xFFFFFFFFFFFFFFFF DUP3 GT OR ISZERO PUSH2 0xAD6 JUMPI PUSH2 0xAD5 PUSH2 0xA7F JUMP JUMPDEST JUMPDEST DUP1 PUSH1 0x40 MSTORE POP POP POP JUMP JUMPDEST PUSH1 0x0 PUSH2 0xAE9 PUSH2 0x885 JUMP JUMPDEST SWAP1 POP PUSH2 0xAF5 DUP3 DUP3 PUSH2 0xAAE JUMP JUMPDEST SWAP2 SWAP1 POP JUMP JUMPDEST PUSH1 0x0 PUSH8 0xFFFFFFFFFFFFFFFF DUP3 GT ISZERO PUSH2 0xB15 JUMPI PUSH2 0xB14 PUSH2 0xA7F JUMP JUMPDEST JUMPDEST PUSH2 0xB1E DUP3 PUSH2 0xA6E JUMP JUMPDEST SWAP1 POP PUSH1 0x20 DUP2 ADD SWAP1 POP SWAP2 SWAP1 POP JUMP JUMPDEST DUP3 DUP2 DUP4 CALLDATACOPY PUSH1 0x0 DUP4 DUP4 ADD MSTORE POP POP POP JUMP JUMPDEST PUSH1 0x0 PUSH2 0xB4D PUSH2 0xB48 DUP5 PUSH2 0xAFA JUMP JUMPDEST PUSH2 0xADF JUMP JUMPDEST SWAP1 POP DUP3 DUP2 MSTORE PUSH1 0x20 DUP2 ADD DUP5 DUP5 DUP5 ADD GT ISZERO PUSH2 0xB69 JUMPI PUSH2 0xB68 PUSH2 0xA69 JUMP JUMPDEST JUMPDEST PUSH2 0xB74 DUP5 DUP3 DUP6 PUSH2 0xB2B JUMP JUMPDEST POP SWAP4 SWAP3 POP POP POP JUMP JUMPDEST PUSH1 0x0 DUP3 PUSH1 0x1F DUP4 ADD SLT PUSH2 0xB91 JUMPI PUSH2 0xB90 PUSH2 0xA64 JUMP JUMPDEST JUMPDEST DUP2 CALLDATALOAD PUSH2 0xBA1 DUP5 DUP3 PUSH1 0x20 DUP7 ADD PUSH2 0xB3A JUMP JUMPDEST SWAP2 POP POP SWAP3 SWAP2 POP POP JUMP JUMPDEST PUSH1 0x0 PUSH2 0xBB5 DUP3 PUSH2 0x8FC JUMP JUMPDEST SWAP1 POP SWAP2 SWAP1 POP JUMP JUMPDEST PUSH2 0xBC5 DUP2 PUSH2 0xBAA JUMP JUMPDEST DUP2 EQ PUSH2 0xBD0 JUMPI PUSH1 0x0 DUP1 REVERT JUMPDEST POP JUMP JUMPDEST PUSH1 0x0 DUP2 CALLDATALOAD SWAP1 POP PUSH2 0xBE2 DUP2 PUSH2 0xBBC JUMP JUMPDEST SWAP3 SWAP2 POP POP JUMP JUMPDEST PUSH1 0x0 DUP1 PUSH1 0x0 PUSH1 0x60 DUP5 DUP7 SUB SLT ISZERO PUSH2 0xC01 JUMPI PUSH2 0xC00 PUSH2 0x88F JUMP JUMPDEST JUMPDEST PUSH1 0x0 DUP5 ADD CALLDATALOAD PUSH8 0xFFFFFFFFFFFFFFFF DUP2 GT ISZERO PUSH2 0xC1F JUMPI PUSH2 0xC1E PUSH2 0x894 JUMP JUMPDEST JUMPDEST PUSH2 0xC2B DUP7 DUP3 DUP8 ADD PUSH2 0xB7C JUMP JUMPDEST SWAP4 POP POP PUSH1 0x20 PUSH2 0xC3C DUP7 DUP3 DUP8 ADD PUSH2 0x8BA JUMP JUMPDEST SWAP3 POP POP PUSH1 0x40 PUSH2 0xC4D DUP7 DUP3 DUP8 ADD PUSH2 0xBD3 JUMP JUMPDEST SWAP2 POP POP SWAP3 POP SWAP3 POP SWAP3 JUMP JUMPDEST PUSH1 0x0 DUP2 MLOAD SWAP1 POP SWAP2 SWAP1 POP JUMP JUMPDEST PUSH1 0x0 DUP3 DUP3 MSTORE PUSH1 0x20 DUP3 ADD SWAP1 POP SWAP3 SWAP2 POP POP JUMP JUMPDEST PUSH1 0x0 JUMPDEST DUP4 DUP2 LT ISZERO PUSH2 0xC91 JUMPI DUP1 DUP3 ADD MLOAD DUP2 DUP5 ADD MSTORE PUSH1 0x20 DUP2 ADD SWAP1 POP PUSH2 0xC76 JUMP JUMPDEST PUSH1 0x0 DUP5 DUP5 ADD MSTORE POP POP POP POP JUMP JUMPDEST PUSH1 0x0 PUSH2 0xCA8 DUP3 PUSH2 0xC57 JUMP JUMPDEST PUSH2 0xCB2 DUP2 DUP6 PUSH2 0xC62 JUMP JUMPDEST SWAP4 POP PUSH2 0xCC2 DUP2 DUP6 PUSH1 0x20 DUP7 ADD PUSH2 0xC73 JUMP JUMPDEST PUSH2 0xCCB DUP2 PUSH2 0xA6E JUMP JUMPDEST DUP5 ADD SWAP2 POP POP SWAP3 SWAP2 POP POP JUMP JUMPDEST PUSH2 0xCDF DUP2 PUSH2 0xBAA JUMP JUMPDEST DUP3 MSTORE POP POP JUMP JUMPDEST PUSH1 0x0 PUSH1 0xA0 DUP3 ADD SWAP1 POP DUP2 DUP2 SUB PUSH1 0x0 DUP4 ADD MSTORE PUSH2 0xCFF DUP2 DUP9 PUSH2 0xC9D JUMP JUMPDEST SWAP1 POP PUSH2 0xD0E PUSH1 0x20 DUP4 ADD DUP8 PUSH2 0x9BD JUMP JUMPDEST PUSH2 0xD1B PUSH1 0x40 DUP4 ADD DUP7 PUSH2 0xCD6 JUMP JUMPDEST PUSH2 0xD28 PUSH1 0x60 DUP4 ADD DUP6 PUSH2 0x993 JUMP JUMPDEST PUSH2 0xD35 PUSH1 0x80 DUP4 ADD DUP5 PUSH2 0x9BD JUMP JUMPDEST SWAP7 SWAP6 POP POP POP POP POP POP JUMP JUMPDEST PUSH32 0x4E487B7100000000000000000000000000000000000000000000000000000000 PUSH1 0x0 MSTORE PUSH1 0x12 PUSH1 0x4 MSTORE PUSH1 0x24 PUSH1 0x0 REVERT JUMPDEST PUSH32 0x4E487B7100000000000000000000000000000000000000000000000000000000 PUSH1 0x0 MSTORE PUSH1 0x11 PUSH1 0x4 MSTORE PUSH1 0x24 PUSH1 0x0 REVERT JUMPDEST PUSH1 0x0 PUSH2 0xDA8 DUP3 PUSH2 0x899 JUMP JUMPDEST SWAP2 POP PUSH2 0xDB3 DUP4 PUSH2 0x899 JUMP JUMPDEST SWAP3 POP DUP3 PUSH2 0xDC3 JUMPI PUSH2 0xDC2 PUSH2 0xD3F JUMP JUMPDEST JUMPDEST DUP3 DUP3 DIV SWAP1 POP SWAP3 SWAP2 POP POP JUMP JUMPDEST PUSH1 0x0 PUSH2 0xDD9 DUP3 PUSH2 0x899 JUMP JUMPDEST SWAP2 POP PUSH32 0xFFFFFFFFFFFFFFFFFFFFFFFFFFFFFFFFFFFFFFFFFFFFFFFFFFFFFFFFFFFFFFFF DUP3 SUB PUSH2 0xE0B JUMPI PUSH2 0xE0A PUSH2 0xD6E JUMP JUMPDEST JUMPDEST PUSH1 0x1 DUP3 ADD SWAP1 POP SWAP2 SWAP1 POP JUMP JUMPDEST PUSH32 0x4E487B7100000000000000000000000000000000000000000000000000000000 PUSH1 0x0 MSTORE PUSH1 0x22 PUSH1 0x4 MSTORE PUSH1 0x24 PUSH1 0x0 REVERT JUMPDEST PUSH1 0x0 PUSH1 0x2 DUP3 DIV SWAP1 POP PUSH1 0x1 DUP3 AND DUP1 PUSH2 0xE5D JUMPI PUSH1 0x7F DUP3 AND SWAP2 POP JUMPDEST PUSH1 0x20 DUP3 LT DUP2 SUB PUSH2 0xE70 JUMPI PUSH2 0xE6F PUSH2 0xE16 JUMP JUMPDEST JUMPDEST POP SWAP2 SWAP1 POP JUMP JUMPDEST PUSH1 0x0 DUP2 SWAP1 POP DUP2 PUSH1 0x0 MSTORE PUSH1 0x20 PUSH1 0x0 KECCAK256 SWAP1 POP SWAP2 SWAP1 POP JUMP JUMPDEST PUSH1 0x0 PUSH1 0x20 PUSH1 0x1F DUP4 ADD DIV SWAP1 POP SWAP2 SWAP1 POP JUMP JUMPDEST PUSH1 0x0 DUP3 DUP3 SHL SWAP1 POP SWAP3 SWAP2 POP POP JUMP JUMPDEST PUSH1 0x0 PUSH1 0x8 DUP4 MUL PUSH2 0xED8 PUSH32 0xFFFFFFFFFFFFFFFFFFFFFFFFFFFFFFFFFFFFFFFFFFFFFFFFFFFFFFFFFFFFFFFF DUP3 PUSH2 0xE9B JUMP JUMPDEST PUSH2 0xEE2 DUP7 DUP4 PUSH2 0xE9B JUMP JUMPDEST SWAP6 POP DUP1 NOT DUP5 AND SWAP4 POP DUP1 DUP7 AND DUP5 OR SWAP3 POP POP POP SWAP4 SWAP3 POP POP POP JUMP JUMPDEST PUSH1 0x0 DUP2 SWAP1 POP SWAP2 SWAP1 POP JUMP JUMPDEST PUSH1 0x0 PUSH2 0xF1F PUSH2 0xF1A PUSH2 0xF15 DUP5 PUSH2 0x899 JUMP JUMPDEST PUSH2 0xEFA JUMP JUMPDEST PUSH2 0x899 JUMP JUMPDEST SWAP1 POP SWAP2 SWAP1 POP JUMP JUMPDEST PUSH1 0x0 DUP2 SWAP1 POP SWAP2 SWAP1 POP JUMP JUMPDEST PUSH2 0xF39 DUP4 PUSH2 0xF04 JUMP JUMPDEST PUSH2 0xF4D PUSH2 0xF45 DUP3 PUSH2 0xF26 JUMP JUMPDEST DUP5 DUP5 SLOAD PUSH2 0xEA8 JUMP JUMPDEST DUP3 SSTORE POP POP POP POP JUMP JUMPDEST PUSH1 0x0 SWAP1 JUMP JUMPDEST PUSH2 0xF62 PUSH2 0xF55 JUMP JUMPDEST PUSH2 0xF6D DUP2 DUP5 DUP5 PUSH2 0xF30 JUMP JUMPDEST POP POP POP JUMP JUMPDEST JUMPDEST DUP2 DUP2 LT ISZERO PUSH2 0xF91 JUMPI PUSH2 0xF86 PUSH1 0x0 DUP3 PUSH2 0xF5A JUMP JUMPDEST PUSH1 0x1 DUP2 ADD SWAP1 POP PUSH2 0xF73 JUMP JUMPDEST POP POP JUMP JUMPDEST PUSH1 0x1F DUP3 GT ISZERO PUSH2 0xFD6 JUMPI PUSH2 0xFA7 DUP2 PUSH2 0xE76 JUMP JUMPDEST PUSH2 0xFB0 DUP5 PUSH2 0xE8B JUMP JUMPDEST DUP2 ADD PUSH1 0x20 DUP6 LT ISZERO PUSH2 0xFBF JUMPI DUP2 SWAP1 POP JUMPDEST PUSH2 0xFD3 PUSH2 0xFCB DUP6 PUSH2 0xE8B JUMP JUMPDEST DUP4 ADD DUP3 PUSH2 0xF72 JUMP JUMPDEST POP POP JUMPDEST POP POP POP JUMP JUMPDEST PUSH1 0x0 DUP3 DUP3 SHR SWAP1 POP SWAP3 SWAP2 POP POP JUMP JUMPDEST PUSH1 0x0 PUSH2 0xFF9 PUSH1 0x0 NOT DUP5 PUSH1 0x8 MUL PUSH2 0xFDB JUMP JUMPDEST NOT DUP1 DUP4 AND SWAP2 POP POP SWAP3 SWAP2 POP POP JUMP JUMPDEST PUSH1 0x0 PUSH2 0x1012 DUP4 DUP4 PUSH2 0xFE8 JUMP JUMPDEST SWAP2 POP DUP3 PUSH1 0x2 MUL DUP3 OR SWAP1 POP SWAP3 SWAP2 POP POP JUMP JUMPDEST PUSH2 0x102B DUP3 PUSH2 0xC57 JUMP JUMPDEST PUSH8 0xFFFFFFFFFFFFFFFF DUP2 GT ISZERO PUSH2 0x1044 JUMPI PUSH2 0x1043 PUSH2 0xA7F JUMP JUMPDEST JUMPDEST PUSH2 0x104E DUP3 SLOAD PUSH2 0xE45 JUMP JUMPDEST PUSH2 0x1059 DUP3 DUP3 DUP6 PUSH2 0xF95 JUMP JUMPDEST PUSH1 0x0 PUSH1 0x20 SWAP1 POP PUSH1 0x1F DUP4 GT PUSH1 0x1 DUP2 EQ PUSH2 0x108C JUMPI PUSH1 0x0 DUP5 ISZERO PUSH2 0x107A JUMPI DUP3 DUP8 ADD MLOAD SWAP1 POP JUMPDEST PUSH2 0x1084 DUP6 DUP3 PUSH2 0x1006 JUMP JUMPDEST DUP7 SSTORE POP PUSH2 0x10EC JUMP JUMPDEST PUSH1 0x1F NOT DUP5 AND PUSH2 0x109A DUP7 PUSH2 0xE76 JUMP JUMPDEST PUSH1 0x0 JUMPDEST DUP3 DUP2 LT ISZERO PUSH2 0x10C2 JUMPI DUP5 DUP10 ADD MLOAD DUP3 SSTORE PUSH1 0x1 DUP3 ADD SWAP2 POP PUSH1 0x20 DUP6 ADD SWAP5 POP PUSH1 0x20 DUP2 ADD SWAP1 POP PUSH2 0x109D JUMP JUMPDEST DUP7 DUP4 LT ISZERO PUSH2 0x10DF JUMPI DUP5 DUP10 ADD MLOAD PUSH2 0x10DB PUSH1 0x1F DUP10 AND DUP3 PUSH2 0xFE8 JUMP JUMPDEST DUP4 SSTORE POP JUMPDEST PUSH1 0x1 PUSH1 0x2 DUP9 MUL ADD DUP9 SSTORE POP POP POP JUMPDEST POP POP POP POP POP POP JUMP INVALID LOG2 PUSH5 0x6970667358 0x22 SLT KECCAK256 0xC7 0xF6 PC SHL 0xEE 0x5F SWAP4 SWAP9 0x22 SWAP5 TIMESTAMP PUSH9 0x25BF3191C45429735F 0xE 0xD2 0xC1 0xC6 JUMPDEST RETURNDATASIZE 0xB1 DUP1 DUP12 SWAP14 EXTCODESIZE PUSH5 0x736F6C6343 STOP ADDMOD LT STOP CALLER "
    },
    "gasEstimates": {
      "creation": {
        "codeDepositCost": "878800",
        "executionCost": "infinite",
        "totalCost": "infinite"
      },
      "external": {
        "approveRequest(uint256)": "infinite",
        "approvers(address)": "2868",
        "approversCount()": "2540",
        "contribute()": "53285",
        "createRequest(string,uint256,address)": "infinite",
        "finalizeRequest(uint256)": "infinite",
        "getRequestsCount()": "2482",
        "getSummary()": "infinite",
        "manager()": "2603",
        "minimumContribution()": "2451",
        "numRequests()": "2473",
        "requestsMap(uint256)": "infinite"
      }
    },
    "methodIdentifiers": {
      "approveRequest(uint256)": "d7d1bbdb",
      "approvers(address)": "0a144391",
      "approversCount()": "82fde093",
      "contribute()": "d7bb99ba",
      "createRequest(string,uint256,address)": "8a9cfd55",
      "finalizeRequest(uint256)": "03441006",
      "getRequestsCount()": "3410452a",
      "getSummary()": "4051ddac",
      "manager()": "481c6a75",
      "minimumContribution()": "937e09b1",
      "numRequests()": "9fb42b1f",
      "requestsMap(uint256)": "c6612dc7"
    }
  },
  "storageLayout": {
    "storage": [
      {
        "astId": 57,
        "contract": "Campaign.sol:Campaign",
        "label": "numRequests",
        "offset": 0,
        "slot": "0",
        "type": "t_uint256"
      },
      {
        "astId": 62,
        "contract": "Campaign.sol:Campaign",
        "label": "requestsMap",
        "offset": 0,
        "slot": "1",
        "type": "t_mapping(t_uint256,t_struct(Request)54_storage)"
      },
      {
        "astId": 64,
        "contract": "Campaign.sol:Campaign",
        "label": "manager",
        "offset": 0,
        "slot": "2",
        "type": "t_address"
      },
      {
        "astId": 66,
        "contract": "Campaign.sol:Campaign",
        "label": "minimumContribution",
        "offset": 0,
        "slot": "3",
        "type": "t_uint256"
      },
      {
        "astId": 70,
        "contract": "Campaign.sol:Campaign",
        "label": "approvers",
        "offset": 0,
        "slot": "4",
        "type": "t_mapping(t_address,t_bool)"
      },
      {
        "astId": 72,
        "contract": "Campaign.sol:Campaign",
        "label": "approversCount",
        "offset": 0,
        "slot": "5",
        "type": "t_uint256"
      }
    ],
    "types": {
      "t_address": {
        "encoding": "inplace",
        "label": "address",
        "numberOfBytes": "20"
      },
      "t_address_payable": {
        "encoding": "inplace",
        "label": "address payable",
        "numberOfBytes": "20"
      },
      "t_bool": {
        "encoding": "inplace",
        "label": "bool",
        "numberOfBytes": "1"
      },
      "t_mapping(t_address,t_bool)": {
        "encoding": "mapping",
        "key": "t_address",
        "label": "mapping(address => bool)",
        "numberOfBytes": "32",
        "value": "t_bool"
      },
      "t_mapping(t_uint256,t_struct(Request)54_storage)": {
        "encoding": "mapping",
        "key": "t_uint256",
        "label": "mapping(uint256 => struct Campaign.Request)",
        "numberOfBytes": "32",
        "value": "t_struct(Request)54_storage"
      },
      "t_string_storage": {
        "encoding": "bytes",
        "label": "string",
        "numberOfBytes": "32"
      },
      "t_struct(Request)54_storage": {
        "encoding": "inplace",
        "label": "struct Campaign.Request",
        "members": [
          {
            "astId": 41,
            "contract": "Campaign.sol:Campaign",
            "label": "description",
            "offset": 0,
            "slot": "0",
            "type": "t_string_storage"
          },
          {
            "astId": 43,
            "contract": "Campaign.sol:Campaign",
            "label": "value",
            "offset": 0,
            "slot": "1",
            "type": "t_uint256"
          },
          {
            "astId": 45,
            "contract": "Campaign.sol:Campaign",
            "label": "recipient",
            "offset": 0,
            "slot": "2",
            "type": "t_address_payable"
          },
          {
            "astId": 47,
            "contract": "Campaign.sol:Campaign",
            "label": "complete",
            "offset": 20,
            "slot": "2",
            "type": "t_bool"
          },
          {
            "astId": 49,
            "contract": "Campaign.sol:Campaign",
            "label": "approvalCount",
            "offset": 0,
            "slot": "3",
            "type": "t_uint256"
          },
          {
            "astId": 53,
            "contract": "Campaign.sol:Campaign",
            "label": "approvals",
            "offset": 0,
            "slot": "4",
            "type": "t_mapping(t_address,t_bool)"
          }
        ],
        "numberOfBytes": "160"
      },
      "t_uint256": {
        "encoding": "inplace",
        "label": "uint256",
        "numberOfBytes": "32"
      }
    }
  },
  "userdoc": {
    "kind": "user",
    "methods": {},
    "version": 1
  }
}